:100000000C94BE1F0C94EF1F0C94EF1F0C94EF1F69
:100010000C94EF1F0C94EF1F0C94EF1F0C94EF1F28
:100020000C94EF1F0C94EF1F0C94EF1F0C94EF1F18
:100030000C94EF1F0C94EF1F0C94EF1F0C94EF1F08
:100040000C94EF1F0D942E3E0C94EF1F0C94EF1F99
:100050000C94EF1F0C94EF1F0C9481D70D94D6498C
:100060000C94EF1F0C94C6400C94BC400C94EF1FF2
:100070000C94EF1F0C94EF1F0C94EF1F0C94EF1FC8
:100080000C9494380C94EF1F0C94EF1F0C94EF1FFA
:100090000C94EF1F0C94EF1F0C94EF1F0C94EF1FA8
:1000A0000C94EF1F0C94EF1F0C9466380C94EF1F08
:1000B0000C94EF1F0C94EF1F0C94EF1F0C94EF1F88
:1000C0000C94EF1F0C94EF1F0C94EF1F0C94EF1F78
:1000D0000C94EF1F0C94EF1F0C94EF1F0C94EF1F68
:1000E0000C94EF1FFC400E412041314139416C41DD
:1000F0003D416C41414145416C4149414D41514176
:100100005A416C416541048E738CAC8C408EAC8C32
:10011000AC8CAC8CAC8CAC8CAC8CAC8CAC8CAC8C1F
:10012000AC8CAC8CAC8CAC8CAC8CAC8CAC8CAC8C0F
:10013000AC8CAC8CAC8CAC8CAC8CAC8CAC8CAC8CFF
:10014000AC8C3A8EAC8CAC8CAC8CAC8CAC8CAC8C5F
:10015000AC8CAC8C138EAC8CAC8CAC8CAC8CAC8C76
:10016000AC8CAC8CAC8CAC8CAC8C578EA98C6102FA
:10017000E3017F0219012D011F0257025B02930266
:10018000FB010B0281012F02FD011502A9024302AE
:10019000CB017B02D302A702A3014F02B9012901BF
:1001A0006702CB01A102D102D901830169020502D4
:1001B000BB014F0109021D023B01AF029901C302BD
:1001C000F901F1016F0109022702BB024301084A4C
:1001D000D73B3BCE016E84BCBFFDC12F3D6C74315B
:1001E0009ABD56833DDA3D00C77F11BED9E4BB4CB2
:1001F0003E916BAAAABE000000803F05A84CCDB27C
:10020000D44EB93836A9020C50B9918688083CA65C
:10021000AAAA2ABE000000803F000C942B6C0C940C
:10022000436A0C94918B0C94738C0D94450F0D9430
:10023000260F0D94D7090D940D120C9442AA0D941B
:10024000E90A0C94B06A0D94E6050D94D70A0D9452
:10025000D7430D949C480D9496050D94BD090C94BC
:10026000308F0D94E8110C942A6A0D94A2050C9419
:10027000048E0D946A0A0D9420490D94FB0A0D9486
:100280002F0A0D94984F0D947D490D94F9110C94FB
:10029000CE8E0D94160A0C94408E0D94C20A0D94C5
:1002A0000E490C94C35F0C94A45F0C94D8820D94F7
:1002B00036120D94070B0D9492050D9497090C942A
:1002C00082690C940E410C9420410C943F6C0C9468
:1002D000306C0C94FC690C9414AA0C9451410D944C
:1002E0005F490D94490F0D94A6110C94FDA90D942E
:1002F0000D0B0C9441410D94E0050C947C720C9410
:10030000B66A0D94CC090D94F0480D94DB010C9461
:10031000CA690D94A5150C943ED00C94F5650C9407
:10032000F4CF0C94E3690C948F610C946C410C94A1
:10033000038C0D9432490D948B090C9414930D94F5
:10034000B5050C9422840D948E480C949A6A0D94F1
:100350009E110D94DD0A0C94138E0C9424820D943E
:1003600017120C94BD5F0D94A6050D9465570D945E
:1003700008120D9498480D9404490C944D410C9426
:10038000BB5F0D94F2120D94EE110D949F0C0D9421
:10039000130B0C9431410D94B3480C94206C0C94C5
:1003A000789C0C94D96E0D949E050C94A78E0D9498
:1003B000F50A0D94AE480C94566A0C9400660D94A0
:1003C000F70F0D949A050D94B7090C9485AE0D9412
:1003D00003120C94E0820D94BE430D949C110D9475
:1003E000FE110D9455490D9437440C944C690C94AE
:1003F0006D720D9446490D94E2090D947C480C945D
:1004000039410D94100E0D94B90A0D94FA480D94CB
:10041000AE050D9487490D94C9090C945D6C0D943B
:1004200071440C94BF5F0C942BAA0D946B480D94EF
:10043000012A0D94C7050C94F0880D9418490D9469
:10044000C0090C94A98C0C9467690D9407020D9453
:1004500069490C945A410D94D3430C948D5F0D94CB
:1004600079480C94FB840C94929A0C94FC400D9463
:1004700012120D94D10A0D94645A0C94F9650C94DF
:1004800023690D94470F0D9473480C9451E80D9413
:100490008B110C94C15F0D94790A0C94176A0D941A
:1004A00092480C9462B10D94F9120D945B0A0D946C
:1004B000C3090C9465820D94CF090C94096D0C94BA
:1004C0001ED00D94D4090C94C99C0C943D410D94FC
:1004D000A0480D94F5480D94420A0C94A46A0D941A
:1004E0004B0F0C944E930C9463860D94E2110C9474
:1004F0008E8B0D948A050D9480480C9445410D9483
:10050000BA090D9431170C943A8E0C9449700D94DD
:10051000F9130D94BB050D9496110C94F1920D9462
:1005200059070C947DE80D94C6090D94C2430C94B0
:1005300089830D9478030C949D690D94F4110D94A6
:10054000DC110D94A6480D94FD090D94DA050D9467
:100550008A480D946F480D948E050D94B2050D9444
:1005600028490C9465410C94578E0C94B8690C94EE
:10057000696C0C94F1AE0D9473490D94EE010C94DA
:100580004E6C0C94008C0D943C490C9449410D9494
:10059000AA050D94E30A0C94FF8B0D94EF0A0C94BA
:1005A000AC8C0D94AA480D9484480C94EB820D9465
:1005B000010B0D94E4090D94B8050C9484820C94FD
:1005C00031694E414E494E495459494E46CDCCCCE5
:1005D0003D0AD7233C17B7D13877CC2B329595E617
:1005E000241FB14F0A000020410000C84200401CF7
:1005F0004620BCBE4CCA1B0E5AAEC59D7400407A44
:1006000010F35A00A0724E18090010A5D4E800009B
:10061000E87648170000E40B54020000CA9A3B0039
:100620000000E1F505000080969800000040420FB0
:10063000000000A08601000000102700000000E874
:1006400003000000006400000000000A0000000039
:10065000000100000000002C76D888DC674F0823DA
:10066000DFC1DFAE59E1B1B796E5E3E453C63AE640
:1006700051997696E8E6C28426EB898C9B62ED4020
:100680007C6FFCEFBC9C9F40F2BAA56FA5F490056F
:100690005A2AF75C936B6CF9676DC11BFCE0E40DA3
:1006A00047FEF520E6B500D0ED902E030094357797
:1006B000050080841E080000204E0A000000C80CBF
:1006C000333333330F986E12831141EF8D21148928
:1006D0003BE65516CFFEE6DB18D1844B381BF77C82
:1006E0001D901DA4BBE424203284725E228100C9C7
:1006F000F124ECA1E53D27434F4D4D554E49434173
:1007000054494F4E0044525952554E004552524F93
:100710005253004543484F0047322F473320626110
:100720006420706172616D65746572730A00536C48
:100730006565702E2E2E005A2050726F6265205013
:10074000617374204265640A005A2050726F6265BA
:10075000205061737420426564004D313137205060
:10076000726F6265206661696C65642E20526577E0
:100770006970696E672E0A4732380A473132205055
:1007800030205331322054300070726F62655F72D6
:1007900065776970650047323920526574727969EE
:1007A0006E67004D31313720426564206C65766597
:1007B0006C696E67206661696C65642E0A4730203B
:1007C0005A31300A4D3330302050323520533838CA
:1007D000300A4D333030205035302053300A4D33FD
:1007E00030302050323520533838300A4D333030D5
:1007F000205035302053300A4D33303020503235C0
:1008000020533838300A4D333030205035302053A3
:10081000300A47342053310070726F62655F666141
:10082000696C6564004D31313720426564206C6528
:1008300076656C696E6720646F6E652E004D65731A
:100840006820706F696E74206F7574206F662072F7
:10085000616E67650A004D302053746F70004D3132
:100860002053746F7000436C69636B20746F205267
:100870006573756D652E2E2E004E6F204D6F76655B
:100880002E00456E642066696C65206C6973740A7D
:1008900000426567696E2066696C65206C697374D7
:1008A0000A004E6F206D656469610A0052657375B8
:1008B0006D696E6720534400286E6F2066696C6511
:1008C000290043757272656E742066696C653A2002
:1008D0000044656C6574696F6E206661696C65645F
:1008E0002C2046696C653A200046696C6520646579
:1008F0006C657465643A005072696E742074696D39
:10090000653A20000A53746174733A2046696C6139
:100910006D656E7420757365643A20002C204C6FF1
:100920006E67657374206A6F623A2000546F746159
:100930006C2074696D653A20002C204661696C65F5
:10094000643A20002C2046696E69736865643A2019
:10095000005072696E74733A200053746174733A74
:100960002000452025530044454255473A004D316B
:10097000313320530042656420436F6F6C696E67AA
:100980002E2E2E004265642048656174696E672EC4
:100990002E2E00435231302D5633204F46462E0026
:1009A0002F2F20004D31343520533C696E6465781B
:1009B0003E206F7574206F662072616E6765202817
:1009C000302D31290A0046523A0020466C6F773AA2
:1009D000200020536572766F200020643A00206961
:1009E0003A0020703A006469730043290A0061628A
:1009F0006C656420286D696E2074656D70200043FD
:100A00006F6C6420657874727564657320617265BB
:100A1000200046696C616D656E742072756E6F752D
:100A2000742064697374616E636520286D6D293A62
:100A3000200046696C616D656E742072756E6F750D
:100A40007420004D34323120696E636F72726563B9
:100A50007420706172616D65746572207573616771
:100A6000650A00454550524F4D204F4B0A00446FD8
:100A70006E65207072696E74696E672066696C6558
:100A80000A004D3737004D3331001307A80A0C0711
:100A90000507F706554E4B4E4F574E2053544154C1
:100AA000450047434F44455F494E464F004C434441
:100AB0005F50415553455F524553554D450046499A
:100AC0004C414D454E545F52554E4F55545F434F28
:100AD0004E54494E55450046494C414D454E545F94
:100AE00052554E4F5554004D38373620526573706D
:100AF0006F6E64696E672050524F4D50545F0045D1
:100B000072726F722077726974696E6720746F20D9
:100B1000454550524F4D210A004E6F204368656392
:100B20006B73756D2077697468206C696E65206ED3
:100B3000756D6265722C204C617374204C696E6512
:100B40003A2000636865636B73756D206D69736D22
:100B5000617463682C204C617374204C696E653A33
:100B600020004C696E65204E756D62657220697358
:100B7000206E6F74204C617374204C696E65204E3A
:100B8000756D6265722B312C204C617374204C6939
:100B90006E653A20004D313130005344207265615A
:100BA00064206572726F720A002121204B494C4CFF
:100BB00020636175736564206279204B494C4C2039
:100BC000627574746F6E2F70696E0A002121204B5C
:100BD000494C4C2063617573656420627920746FA1
:100BE0006F206D75636820696E6163746976652036
:100BF00074696D65202D2063757272656E74206353
:100C00006F6D6D616E643A2000627573793A207081
:100C1000617573656420666F7220696E7075740A01
:100C200000627573793A2070617573656420666F30
:100C30007220757365720A00627573793A2070725A
:100C40006F63657373696E670A004D65646961203F
:100C500052656D6F766564004D6564696120496E0B
:100C6000736572746564007061757365004D36302C
:100C700030002066696C616D656E745F72756E6FB1
:100C80007574200066696C616D656E745F72756E57
:100C90006F757420540046696C616D656E74527591
:100CA0006E6F7574205400726573756D65640052C3
:100CB0006573756D696E67004732362048656174EB
:100CC000696E67204E6F7A7A6C650047323620482D
:100CD000656174696E672042656400576169746973
:100CE0006E6720666F72206865617475702E0A00E9
:100CF0004669786564204C656E6774682050726937
:100D00006D6500446F6E65205072696D696E670095
:100D10004D616E75616C207072696D696E672E2E03
:100D20002E004732362043616E63656C6564004C6B
:100D3000656176696E6720473236003F53706563A0
:100D4000696669656420582C5920636F6F72646905
:100D50006E617465206F7574206F6620626F756EAA
:100D600064732E0A003F28522965706561742076ED
:100D7000616C7565206E6F7420706C61757369624B
:100D80006C653B206D757374206265206174206C06
:100D90006561737420312E0A003F53706563696684
:100DA000696564206E6F7A7A6C652074656D706514
:100DB000726174757265206E6F7420706C617573EA
:100DC00069626C652E0A003F5370656369666965E8
:100DD000642066696C616D656E742073697A652044
:100DE0006E6F7420706C61757369626C652E0A0099
:100DF0003F537065636966696564207072696D65EB
:100E0000206C656E677468206E6F7420706C6175FD
:100E10007369626C652E0A003F5370656369666989
:100E20006564206E6F7A7A6C652073697A65206ECE
:100E30006F7420706C61757369626C652E0A003F77
:100E400052657472616374696F6E204D756C74695C
:100E5000706C696572206D757374206265207370A3
:100E6000656369666965642E0A003F53706563694E
:100E7000666965642052657472616374696F6E207F
:100E80004D756C7469706C696572206E6F7420703A
:100E90006C61757369626C652E0A003F53706563FF
:100EA0006966696564206C61796572206865696747
:100EB0006874206E6F7420706C61757369626C6504
:100EC0002E0A0043292E0A003F5370656369666944
:100ED0006564206265642074656D70657261747507
:100EE0007265206E6F7420706C61757369626C65D9
:100EF000202834302D0047323620737461727469B3
:100F00006E672E2E2E0A00506C6561736520526547
:100F1000736574005052494E5445522048414C5418
:100F200045440025533A20255300706F7765726F52
:100F30006666004B494C4C45442E20005072696E49
:100F40007465722068616C7465642E206B696C6CCA
:100F500028292063616C6C6564210A006563686FF1
:100F60003A004572726F723A0042696C696E65614F
:100F700072204C6576656C696E6720477269643AC9
:100F80000A0053544F505045442E20005072696E51
:100F90007465722073746F70706564206475652069
:100FA000746F206572726F72732E20466978207498
:100FB0006865206572726F7220616E64207573655A
:100FC000204D39393920746F2072657374617274E1
:100FD0002E202854656D7065726174757265206984
:100FE000732072657365742E2053657420697420B4
:100FF00061667465722072657374617274696E677C
:10100000290A0021212053544F502063616C6C65E4
:10101000642062656361757365206F6620424C547D
:101020006F756368206572726F72202D2072657310
:10103000746172742077697468204D3939390A00F7
:101040005072696E74696E67204F626A65637400DE
:101050002553202569002F2F616374696F6E3A0054
:10106000656E640070726F6D70745F0073686F7787
:101070000044697361626C6552756E6F75740050DF
:10108000757267654D6F726500486F74656E642098
:10109000746F6F20636F6C640A0053656E64204D3B
:1010A00031303820746F20726573756D650A005297
:1010B000656865617420446F6E650052656865619E
:1010C00074696E672E2E2E00526568656174004843
:1010D00065617465722054696D656F757400536540
:1010E0006E64204D31303820746F20686561742043
:1010F0006E6F7A7A6C650A004E6F7A7A6C65205052
:1011000061726B6564007061757365640050494479
:10111000204175746F74756E65202A005049442D06
:1011200044202A005049442D49202A005049442D8A
:1011300050202A0020082046616374002008204DBA
:101140006178002008204D696E004175746F7465E8
:101150006D70005654726176204D696E00566D694F
:101160006E00566D6178204500566D6178205A00FA
:10117000566D6178205900566D6178205800416D98
:101180006178204500416D6178205A00416D617899
:10119000205900416D6178205800412D54726176CC
:1011A000656C00412D526574726163740041636324
:1011B000656C005A2056616C756500496E646578EF
:1011C000205900496E6465782058004661646520A6
:1011D0004865696768740045646974204D65736883
:1011E000004C6576656C20426564004732380A47DA
:1011F0003239004E4F005945530043616E63656CB0
:10120000204F626A656374203D0053572D4D6F6413
:10121000650053746F77004465706C6F7900536597
:101220006C662D546573740046616E20537065655D
:10123000640050726F6265204F6666736574205A51
:10124000003F5A206F7574206F662072616E67656B
:101250002028003F59206F7574206F662072616EE0
:10126000676520282D0020746F20003F58206F757F
:1012700074206F662072616E676520282D005072A1
:101280006F6265204F6666736574205800656E71E5
:1012900075657565696E672022006F6B0052657316
:1012A000656E643A200025697920256964202569E6
:1012B000682025696D202569730023646566696E61
:1012C000652044454641554C545F004B6420004B1B
:1012D0006920004B702000504944204175746F74A0
:1012E000756E652066696E69736865642120507546
:1012F0007420746865206C617374204B702C204BD3
:101300006920616E64204B6420636F6E7374616E3C
:1013100074732066726F6D2062656C6F7720696EE2
:10132000746F20436F6E66696775726174696F6E62
:101330002E680A00504944204175746F74756E65BB
:10134000206661696C6564212074696D656F7574D0
:101350000A000A20436C617373696320504944207A
:101360000A00204B643A2000204B693A2000204BB1
:10137000703A20000A204E6F206F76657273686F96
:101380006F740A002054753A2000204B753A2000F3
:10139000206D61783A2000206D696E3A200020644B
:1013A0003A200020626961733A200050494420418C
:1013B00075746F74756E652073746172740A005071
:1013C0004944204175746F74756E65206661696C5F
:1013D0006564212054656D70657261747572652055
:1013E000746F6F20686967680A005049442041752E
:1013F000746F74756E6500504944204175746F7444
:10140000756E65206661696C6564212042616420A7
:101410006578747275646572206E756D6265720AA6
:1014200000436F6E66696775726174696F6E004321
:10143000616E63656C204F626A6563740043616E20
:1014400063656C00313230004245443A20455043D8
:101450004F53203130304B0052756E6177617920E7
:1014600057617463683A204F4E004D61782054658F
:101470006D7000323735004D696E2054656D700017
:1014800045313A204550434F53203130304B0050C6
:1014900053550047656E657269630050726F746FD3
:1014A000636F6C00312E300042617564003235305C
:1014B00030303000437265616C6974793344205276
:1014C000414D50530042696C696E656172204C65F4
:1014D00076656C696E6700457874727564657273C1
:1014E00000435231302D563300323032302D3131FD
:1014F0002D31302031313A3033005072696E7465CD
:101500007220537461747300546865726D697374EA
:101510006F727300426F61726420496E666F005093
:1015200072696E74657220496E666F004368616E01
:101530006765204D65646961004D32310041626F1D
:101540007574205072696E74657200526573756DA2
:1015500065205072696E74004E6F204D656469613C
:101560000054756E650053746F70205072696E740C
:10157000005061757365205072696E7400496E6623
:101580006F2053637265656E0053746172742050EE
:1015900072696E740043616E6E6F7420656E74655F
:1015A00072207375626469723A2000022E2E004523
:1015B00072723A207574663820666F6E74206E6F92
:1015C0007420696E697469616C697A65642E0000C3
:1015D0000C0F00FE07022503BB017FFE08FE08FE7C
:1015E00005080806000040F0C888889878100508AB
:1015F00008060000C0F88888888888F80505050670
:1016000000012030F830200508080600002070F89E
:1016100020202020E00509090600FF2070A8A8B8B6
:1016200088887020070505070001D86C366CD8053E
:1016300009090600FFF8A88888888888A8F8050A9C
:101640000A0600FE205050505088A8A88870030356
:101650000306000340A040FFFFFFFFFFFFFFFFFF67
:10166000FFFFFFFFFFFFFFFFFFFFFFFFFF00000087
:101670000605FF0107070602008080808080008049
:10168000030303060105A0A0A005060606000050FE
:10169000F85050F8500509090600FF2070A8A07006
:1016A00028A87020050707060000C8C81020409829
:1016B0009805070706000040A0A040A89068010315
:1016C000030602058080800309090601FF204040CF
:1016D0008080804040200309090601FF80404020AF
:1016E000202040408005070706000020A8702070D9
:1016F000A8200505050600012020F820200203038C
:101700000601FFC04080050101060003F802020245
:10171000060100C0C00507070600000810102040A1
:101720004080050707060000708898A8C8887003E5
:10173000070706010040C040404040E0050707069B
:101740000000708808102040F8050707060000F820
:101750000810300888700507070600001030509008
:10176000F81010050707060000F880F008088870D8
:10177000050707060000304080F0888870050707DD
:10178000060000F8081010202020050707060000BA
:101790007088887088887005070706000070888840
:1017A00078081060020505060100C0C000C0C00234
:1017B00006060601FFC0C000C04080030505060103
:1017C000012040804020050303060002F800F803D2
:1017D000050506010180402040800507070600003E
:1017E000708810202000200507070600007088B8C8
:1017F000A8B88070050707060000708888F88888F8
:1018000088050707060000F04848704848F00507BB
:101810000706000070888080808870050707060032
:1018200000F04848484848F0050707060000F880DF
:1018300080F08080F8050707060000F88080F080BF
:1018400080800507070600007088808098887005F2
:101850000707060000888888F88888880307070635
:101860000100E04040404040E00507070600003826
:101870001010101090600507070600008890A0C0A7
:10188000A09088050707060000808080808080F88F
:1018900005070706000088D8A888888888050707F4
:1018A0000600008888C8A8988888050707060000F1
:1018B00070888888888870050707060000F0888887
:1018C000F080808005070706000070888888A8904F
:1018D00068050707060000F08888F0A090880507D3
:1018E00007060000708880700888700507070600EA
:1018F00000F8202020202020050707060000888807
:1019000088888888700507070600008888888850BE
:10191000502005070706000088888888A8A8500579
:1019200007070600008888502050888805070706AA
:10193000000088885020202020050707060000F8B6
:101940000810204080F80309090601FFE08080802C
:1019500080808080E005070706000080404020105E
:1019600010080309090601FFE02020202020202084
:10197000E00503030600052050880501010600FE6E
:10198000F803030306010580402005050506000055
:1019900070087888780507070600008080F088883E
:1019A00088F005050506000070808088700507072F
:1019B0000600000808788888887805050506000074
:1019C0007088F08070050707060000304840E0404E
:1019D00040400507070600FE708888887808700573
:1019E00007070600008080F08888888803070706BC
:1019F00001004000C0404040E00409090601FE101B
:101A0000003010101010906005070706000080805D
:101A10008890E09088030707060100C040404040DE
:101A200040E0050505060000D0A8A8A8A805050502
:101A3000060000B0C8888888050505060000708883
:101A40008888700507070600FEF0888888F0808087
:101A50000507070600FE78888888780808050505C8
:101A6000060000B0C880808005050506000078806B
:101A70007008F00507070600002020F82020201835
:101A80000505050600008888889868050505060094
:101A90000088888850200505050600008888A8A8C9
:101AA00050050505060000885020508805070706E8
:101AB00000FE88888850204080050505060000F853
:101AC000102040F80309090601FF204040408040F3
:101AD0004040200109090602FF80808080808080CC
:101AE00080800309090601FF8040404020404040BB
:101AF0008005030306000248A890FF50726F6265DC
:101B0000205A204F66667365740046616E205370DC
:101B1000656564207E004D61696E00466C6F7700DC
:101B20002568753A25303268750025303268753A77
:101B300025303268750020202020202020001FE062
:101B400020102010201010201020201020103030E5
:101B50000840048003001FE03FF03FF03FF01FE02B
:101B60001FE03FF03FF03FF00FC0078003003FFF52
:101B7000F038007030FC3020FC102078102030103D
:101B80002C00D02E31D02F7BD02F7BD02E31D02CDB
:101B900000D020301020781020FC1030FC303800AD
:101BA000703FFFF03FFFF038007031863023871020
:101BB0002787902F87D02F03D02030102078102037
:101BC00078102030102F03D02F87D02787902387BD
:101BD000103186303800703FFFF01FFFF81FFFF80C
:101BE0000410400208200208200410400820801041
:101BF00041001041000820800410400000001FFF39
:101C0000F81FFFF800FBF0000001D9B8E38003895A
:101C1000B9E7C00381F0C6C003C1B8C6C001FBB8B4
:101C2000E7C000FBDFF380000000000000000000C0
:101C3000000003CE00000001C8F0000001D9F00050
:101C40000000F070000000F06000000060F800008C
:101C50000061F8003F00496E697469616C697A65DA
:101C600020454550524F4D00454550524F4D20564E
:101C7000657273696F6E204572726F7200454550D0
:101C8000524F4D20496E646578204572726F720024
:101C9000454550524F4D20435243204572726F725A
:101CA0000049676E6F726500486F6D696E67204608
:101CB00061696C6564006F70656E005452494747F6
:101CC000455245440066696C616D656E74007A5FCB
:101CD0006D696E00795F6D696E00785F6D696E0089
:101CE0005265706F7274696E6720656E6473746F8D
:101CF00070207374617475730A00486F6D652025D8
:101D0000732573257320466972737400456E636C86
:101D10006F737572650052756E6F757420446973C8
:101D200074206D6D004C6F6164206D6D00556E6C9C
:101D30006F6164206D6D0046696C2E204469612ED0
:101D4000004520696E206D6DC2B3004D33303320E5
:101D5000553120452569205325690000FE0003FF09
:101D60008007C7C00701E00000E00000F00000703D
:101D70000400700E00701F00703F80F00E00E00F36
:101D800001E007C7C003FF8000FE0000FE0003FF64
:101D90008007C7C00F01E00E00E03F80F01F007019
:101DA0000E00700400700000700000F00000E007FA
:101DB00001E007C7C003FF8000FE000E000E000E0A
:101DC000000E000E000E000E000E007FC03F801FB0
:101DD000000E00040004000E001F003F807FC00EB4
:101DE000000E000E000E000E000E000E000E00FF92
:101DF000FFFF7F80FFC0FFC0FFC07F807F80FFC0EC
:101E0000FFC0FFC03F001E000C0000009B4300000D
:101E10009B430000C84300000000000000000000D9
:101E2000000053657474696E67732053746F726534
:101E300064002062797465733B20637263200053F1
:101E4000657474696E67732053746F7265642028BB
:101E500000454550524F4D206461746173697A6545
:101E6000206572726F722E0A002073746F7265643F
:101E70002073657474696E67732072657472696526
:101E8000766564202800202863616C63756C61743A
:101E9000656429210A0020213D2000454550524F0C
:101EA0004D20435243206D69736D61746368202D2A
:101EB000202873746F726564292000496E64657808
:101EC0003A200044494749504F5453204C6F6164B5
:101ED00065640A0044494749504F5453204C6F6190
:101EE00064696E670A00204D61726C696E3D5638F8
:101EF00032290A00454550524F4D2076657273696C
:101F00006F6E206D69736D6174636820284545505C
:101F1000524F4D3D004F46460A00466164652048D9
:101F200065696768742000426564204C6576656C5D
:101F3000696E6720004661696C656420746F206576
:101F40006E61626C6520426564204C6576656C69E3
:101F50006E670A00496E76616C6964206D6573680E
:101F60002E0A0050726F62696E6720506F696E743E
:101F70000025532025692F25690050726F62696E14
:101F800067206D65736820706F696E74200020286B
:101F900044525952554E2900473239204175746FC9
:101FA00020426564204C6576656C696E67003F2051
:101FB000284C2C522C462C4229206F7574206F66B9
:101FC00020626F756E64732E0A003F285629657271
:101FD000626F7365206C6576656C20696D706C61ED
:101FE000757369626C652028302D34292E0A0042F1
:101FF0006164205A2076616C75650A004E6F20621C
:10200000696C696E65617220677269640A00446573
:1020100076696174696F6E0025533A202573004616
:10202000696E6973686564210A003A207A3A200073
:10203000206F662000476F696E6720746F3A2058E2
:102040000043570A00206469723A0020616E676C91
:10205000653A005374617274207261646975733AF1
:10206000004D343820506F696E740025533A202596
:10207000642F256400506F736974696F6E696E67B1
:10208000207468652070726F62652E2E2E0A003FE4
:102090004C656773206F66206D6F76656D656E7435
:1020A00020696D706C61757369626C652028302DD4
:1020B0003135292E0A003F2028582C5929206F75C8
:1020C00074206F6620626F756E64732E0A00507202
:1020D0006F6265206F7574206F6620626F756E6425
:1020E00073003F53616D706C652073697A65206E73
:1020F0006F7420706C61757369626C652028342D73
:102100003530292E0A004D3438205A2D50726F6216
:1021100065205265706561746162696C69747920CB
:10212000546573740A0000000000000000600000A5
:10213000000000FC00000FF00000000007E00000BD
:10214000000001861FC018700000000000603C0CF9
:10215000000001830C6010300000000000603C0CA7
:10216000000001830C303030000000000060000CE3
:10217000000000030C183000000000000060003F69
:102180000F3C00030C0C6001DF0FE0FE00601C1C24
:10219000061800060C0C6000F318318300600C0C6C
:1021A0000318001E0C0C6000E030398300600C0C3A
:1021B000033000030C0C6000C030380F00600C0CC2
:1021C000033000018C0C6000C03FF8FB00600C0C79
:1021D000033000018C0C6030C030018300600C0CB7
:1021E00001F001818C0C6030C030018300600C0C68
:1021F00000E001818C183030C018318300600C0C75
:1022000040E001838C301860C00C6187C0E01C0C7A
:10221000C06000C30C600FC3F007C0FFC7FC7F079E
:1022200081C0007E1FC00000000000000000000010
:102230000700000000000000000000000000000097
:102240000700000000001FFFFFFFFFFFFF6000000E
:10225000000001FF400000000000FF8000000000BF
:10226000007F83CF00000C303F87FF80000C301FC1
:10227000867980000C000F8C30C7838C30E78C305F
:10228000CFC7CC31F38C30DCECEC33B98C30D86C6C
:102290006C33198C30D06C0C33198C30D86C0C33F7
:1022A000198C30DC6C0E3B198C30CF7C079F198C5D
:1022B00030C77C038F19400000000000026000005E
:1022C000000000061FFFFFFFFFFFF870012C0190C8
:1022D000012701B0012201C0011D01F00118011008
:1022E00002130130020E016002090190020401C0D4
:1022F00002FF000003FA004003F5008003F000D065
:1023000003EB002004E6007004E100E004DC004080
:1023100005D700C005D2004006CD00D006C8008019
:1023200007C3003008BE00F008B900C009B400B00F
:102330000AAF00B00BAA00D00CA500000EA0005000
:102340000F9B00C01096005012910000148C00C02A
:10235000158700B0178200B0197D00D01B780000EF
:102360001E730040206E0090226900F0246400403B
:10237000275F0090295A00E02B5500102E500020B6
:10238000304B0010324600E033410090353C0010E5
:1023900037370070383200A0392D00B03A2800A03D
:1023A0003B2300603C1E00103D1900903D140010BE
:1023B0003E0F00703E0A00C03E0500003F00004096
:1023C0003FFBFF803FF6FFC03FF1FF6874747073FE
:1023D0003A2F2F6D61726C696E66772E6F7267008F
:1023E000322E302E372E322D636F646576736B6913
:1023F0002D424C002020506C616E6E6572427566F5
:1024000066657242797465733A200020467265658C
:10241000204D656D6F72793A2000436F6D70696C65
:1024200065643A204A616E20203420323032310A0D
:1024300000204C61737420557064617465643A20A7
:10244000323032302D31312D31302031313A30338C
:10245000207C20417574686F723A20636F646576E2
:10246000736B692C20435231302D56332C2062611E
:10247000736564206F6E206672616E367020435201
:1024800031302D56320A00322E302E372E322D6347
:102490006F646576736B692D424C0A004D61726CF6
:1024A000696E0020536F66747761726520526573A0
:1024B00065740A00205761746368646F6720526511
:1024C0007365740A002042726F776E206F757420F6
:1024D00052657365740A002045787465726E616C8C
:1024E0002052657365740A00506F77657255700AE3
:1024F000006175746F25632E6700473238585900A4
:102500004D31303031006572726F722077726974AC
:10251000696E6720746F2066696C650A00446F6E8F
:102520006520736176696E672066696C652E0A00A6
:102530004D32390025532025632025632025632053
:10254000256300656E6473746F7073206869743AF4
:102550002000496E76616C696420657874727564D8
:1025600065720A0048656174696E67204661696C2E
:1025700065640048656174696E67206661696C65B1
:1025800064004D3131322053687574646F776E008A
:10259000202D20496E76616C6964206578747275AF
:1025A000646572206E756D62657220210A00544860
:1025B00045524D414C2052554E41574159005468A7
:1025C00065726D616C2052756E617761790045723C
:1025D000723A204D415854454D50004D4158544594
:1025E0004D50207472696767657265640045727248
:1025F0003A204D494E54454D50004D494E54454D9D
:10260000502074726967676572656400202F00202E
:1026100042403A0020403A0020573A007C3C3E5E5F
:102620002B3D3F2F5B5D3B2C2A225C002053697AB7
:10263000653A200043616E6E6F74206F70656E2086
:102640007375626469722000534420496E69742076
:102650004661696C0053442063617264206F6B0AA9
:10266000006F70656E526F6F74206661696C65648F
:102670000A00766F6C756D652E696E6974206661EF
:10268000696C65640A004E6F205344206361726474
:102690000A004D3233202573006F70656E2066612D
:1026A000696C65642C2046696C653A200046696C4B
:1026B000652073656C65637465640A0046696C65C2
:1026C000206F70656E65643A2000454E4420535576
:1026D00042524F5554494E450A002220706F7300F4
:1026E0002220706172656E743A2200535542524F37
:1026F0005554494E452043414C4C207461726765E6
:10270000743A220053756263616C6C204F76657277
:10271000666C6F77004578636565646564206D61FC
:102720007820535542524F5554494E4520646570A8
:1027300074683A310A0057726974696E6720746F61
:102740002066696C653A20005344207072696E748B
:10275000696E67206279746520004E6F742053445F
:10276000207072696E74696E670A006672657368BC
:1027700000646F696E67004E6F7720005072696E5B
:1027800074205061757365640020746F6F206C6FE6
:102790006E6720657874727573696F6E20707265EC
:1027A00076656E7465640A0020636F6C64206578DA
:1027B00074727573696F6E2070726576656E74657C
:1027C000640A00626567696E00627574746F6E00FA
:1027D000436F6E74696E7565004C6F616420466965
:1027E0006C616D656E74205400496E73657274205F
:1027F00066696C616D656E7420616E642073656ED0
:1028000064204D3130380A00220A00556E6B6E6F1D
:10281000776E20636F6D6D616E643A2022004352C3
:1028200031302D56332052656164792E0050726923
:102830006E74696E672E2E2E00205A3A0020593A87
:10284000004C6F61642053657474696E6773005344
:10285000746F72652053657474696E6773004164A8
:1028600076616E6365642053657474696E67730086
:10287000554E4C4F41442046494C414D454E540025
:1028800046494C414D454E54204348414E47450032
:10289000526573746F72652044656661756C7473FC
:1028A0000050726568656174202420436F6E660075
:1028B00052756E6F75742053656E736F7200424C63
:1028C000546F756368004D37303220542564004DD5
:1028D00036303020423020542564004D37303220CD
:1028E0003B2564004D37303120542564004D37308E
:1028F00032004D373031004D3630302042300050FC
:1029000075726765206D6F726500524553554D4570
:10291000204F5054494F4E533A005052494E542084
:102920005041555345440020204E6F7A7A6C653AE9
:102930002000256C642E25696D00457874727564DD
:10294000656420546F74616C004C6F6E67657374BE
:10295000204A6F622054696D65003E2000546F74F8
:10296000616C205072696E742054696D6500436F0C
:102970006D706C65746564005072696E7420436F8D
:10298000756E74005061726B696E672E2E2E00009A
:10299000005761697420666F720066696C616D65CD
:1029A0006E74206368616E676500746F2073746174
:1029B0007274005761697420666F720066696C6199
:1029C0006D656E7420756E6C6F616400004E6F7A79
:1029D0007A6C652068656174696E6700506C65612A
:1029E000736520776169742E2E2E00005072657316
:1029F0007320627574746F6E00746F206865617403
:102A0000206E6F7A7A6C650000496E73657274206F
:102A100066696C616D656E7400616E6420707265CC
:102A2000737320627574746F6E00746F20636F6EC1
:102A300074696E7565005761697420666F7200660F
:102A4000696C616D656E74206C6F6164000050721A
:102A500065737320427574746F6E00746F207265B5
:102A600073756D65207072696E74000057616974CA
:102A700020666F72207072696E7400746F207265C8
:102A800073756D652E2E2E00005761697420666F78
:102A9000720066696C616D656E7420707572676531
:102AA000000056652D4A65726B00565A2D4A6572B4
:102AB0006B0056592D4A65726B0056582D4A657247
:102AC0006B0050726F62652059204F6666736574A3
:102AD0000050726F62652058204F666673657400FF
:102AE000452073746570732F6D6D005A20537465A3
:102AF00070732F6D6D00592053746570732F6D6D59
:102B000000582053746570732F6D6D00496E6974A1
:102B10000050726F6265204F666673657473004182
:102B20006363656C65726174696F6E0056656C6F86
:102B300063697479004F6666004F6E004D6F74696B
:102B40006F6E004D3834004175746F20486F6D65AD
:102B50000054656D7065726174757265002100487E
:102B60006F74656E6420746F6F20636F6C640050C7
:102B7000726F6365656400536F667420456E64739D
:102B8000746F70730044697361626C65205374657F
:102B90007070657273004D34382050726F6265201A
:102BA0005465737400473238204F0A4D3438205032
:102BB000313000486F6D65205A004732385A00485E
:102BC0006F6D652059004732385900486F6D652098
:102BD00058004732385800473238005072656865EF
:102BE0006174202420456E640050726568656174CC
:102BF00020242042656400436F6F6C646F776E0021
:102C000024F4D43050C38E20C2A24017828B70119E
:102C1000127A910D816CD90AA861E108C75866073C
:102C2000615143061E4B5D05C145A7041A411104BD
:102C3000093D9803713931034036DB026533910257
:102C4000D4305402802E1D02632CEE01752AC5017A
:102C5000B028A001102781018F2564012B244B018E
:102C6000E0223401AC211F018D200D01801FFC00EA
:102C7000841EED00971DDF00B81CD200E61BC600C5
:102C8000201BBC00641AB200B219A8000A19A000E7
:102C90006A189900D117910040178B00B51684006F
:102CA00031167E00B31579003A157300C7146F0012
:102CB00058146A00EE1366008813630025135E0043
:102CC000C7125B006C12570015125400C11151005D
:102CD00070114F0021114B00D61049008D10470094
:102CE0004610440002104200C00F4000800F3E001A
:102CF000420F3C00060F3B00CB0E3800930E37000E
:102D00005C0E3500270E3400F30D3200C10D31008A
:102D1000900D3000600D2E00320D2D00050D2C00A1
:102D2000D90C2B00AE0C2900850C29005C0C270067
:102D3000350C27000E0C2600E80B2400C40B2400E1
:102D4000A00B23007D0B23005A0B2100390B21001F
:102D5000180B2000F80A1F00D90A1E00BB0A1E002B
:102D60009D0A1D00800A1D00630A1C00470A1B0003
:102D70002C0A1B00110A1A00F7091A00DD091900B4
:102D8000C4091900AB091900920917007B09180042
:102D9000630917004C0916003609160020091600B1
:102DA0000A091500F5081500E0081400CC08140005
:102DB000B8081400A4081400900813007D0812003D
:102DC0006B0813005808120046081200340811005E
:102DD000230811001208110001081100F00710006B
:102DE000E0071000D0071000C0071000B0070F0068
:102DF000A107100091070E0083070F0074070F0052
:102E000065070E0057070E0049070E003B070D002F
:102E10002E070E0020070D0013070D0006070D00FA
:102E2000F9060C00ED060D00E0060C00D4060C00BF
:102E3000C8060C00BC060C00B0060C00A4060B0073
:102E400099060C008D060B0082060B0077060B001E
:102E50006C060B0061060A0057060B004C060A00C0
:102E600042060A0038060A002E060A0024060A0056
:102E70001A060A001006090007060A00FD050900E7
:102E8000F4050900EB050900E2050900D905090070
:102E9000D0050900C7050900BE050900B5050800F1
:102EA000AD050800A50509009C050800940508006B
:102EB0008C050800840508007C05080074050800DE
:102EC0006C050700650508005D050700560508004C
:102ED0004E050700470507004005080038050700B4
:102EE000310507002A050700230507001C05060019
:102EF000160507000F050700080506000205070074
:102F0000FB040600F5040700EE040600E8040600D2
:102F1000E2040700DB040600D5040600CF04060027
:102F2000C9040600C3040600BD040600B704060079
:102F3000B1040500AC040600A6040600A0040500C8
:102F40009B04060095040500900406008A04050011
:102F500085040500800406007A0405007504050058
:102F6000700405006B04050066040500610405009B
:102F70005C04050057040500520405004D040500DB
:102F800048040500430405003E0404003A0405001B
:102F900035040500300404002C0405002704040057
:102FA000230405001E0404001A040400160405008E
:102FB000110404000D0404000904050004040400C5
:102FC00000040400FC030400F8030400F4030400FC
:102FD000F0030400EC030400E8030400E40304002D
:102FE000E0030400DC030400D8030400D40304005D
:102FF000D0030400CC030400C8030300C50303008E
:1030000024F404D9201BC40C5C0E9804C4095F028C
:1030100065077101F405F900FB04B300480487005B
:10302000C10369005803550003034500BE023A007E
:103030008402310053022A002902250004022000E4
:10304000E4011C00C8011900AF0117009801140029
:1030500084011300710110006101100051010E0084
:1030600043010D0036010B002B010B0020010B006A
:10307000150109000C01090003010800FB0008000C
:10308000F3000800EB000700E4000600DE00060085
:10309000D8000600D2000600CC000500C7000500DD
:1030A000C2000500BD000400B9000400B500040022
:1030B000B1000400AD000400A9000400A500030055
:1030C000A20003009F0004009B000300980003007F
:1030D0009500020093000300900003008D000200A1
:1030E0008B000300880002008600020084000300B9
:1030F000810002007F0002007D0002007B000200D0
:1031000079000200770001007600020074000200DE
:1031100072000100710002006F0002006D000100EA
:103120006C0002006A0001006900020067000100F3
:1031300066000100650001006400020062000100F9
:1031400061000100600001005F0002005D000100FD
:103150005C0001005B0001005A0001005900010001
:103160005800010057000100560001005500010001
:103170005400010053000000530001005200010000
:1031800051000100500001004F0001004E000000FE
:103190004E0001004D0001004C0001004B000000FA
:1031A0004B0001004A0001004900010048000000F6
:1031B00048000100470001004600000046000100F1
:1031C00045000000450001004400010043000000EC
:1031D00043000100420000004200010041000000E5
:1031E00041000100400001003F0000003F000100DD
:1031F0003E0000003E0001003D0000003D000100D7
:103200003C0000003C0000003C0001003B000000CE
:103210003B0001003A0000003A00010039000000C4
:1032200039000100380000003800000038000100BB
:1032300037000000370001003600000036000000B3
:1032400036000100350000003500000035000100A7
:10325000340000003400000034000100330000009E
:103260003300000033000100320000003200000093
:103270003200010031000000310000003100010087
:103280003000000030000000300001002F0000007E
:103290002F0000002F0000002F0001002E00000072
:1032A0002E0000002E0001002D0000002D00000067
:1032B0002D0000002D0001002C0000002C0000005B
:1032C0002C0000002C0001002B0000002B0000004F
:1032D0002B0000002B0001002A0000002A00000043
:1032E0002A0000002A000100290000002900000037
:1032F000290000002900000029000100280000002A
:10330000280000002800000028000000280001001C
:103310002700000027000000270000002700000011
:103320002700010026000000260000002600000003
:1033300026000000260001002500000025000000F6
:1033400025000000250000002500000025000100E8
:1033500024000000240000002400000024000000DD
:1033600024000100230000002300000023000000CF
:1033700023000000230000002300000023000100C0
:1033800022000000220000002200000022000000B5
:1033900022000000220001002100000021000000A6
:1033A0002100000021000000210000002100000099
:1033B000210001002000000020000000200000008B
:1033C000200000002000000020000000200000007D
:1033D000200001001F0000001F0000001F0000006F
:1033E0001F0000001F0000001F0000001F00010060
:1033F0001E0000001E0000001E0000001E00000055
:10340000393000003325000087190000B00F00009C
:10341000DB080000BD040000740200003F01000052
:103420005374616E64617264204465766961746985
:103430006F6E3A20002052616E67653A200020537B
:1034400069676D613A20004D65616E3A2000416305
:1034500063656C65726174696F6E3A205000574104
:10346000524E494E4721204C6F77205A204A6572B0
:103470006B206D6179206C65616420746F20756EBE
:1034800077616E746564207061757365732E0A00D0
:10349000204D393220580020204D61783A200020FC
:1034A000204D696E3A2000536F667420656E647318
:1034B000746F70733A200020496E76616C696420E5
:1034C00065787472756465722000000048420000DF
:1034D00048420000C0400202040000A0400000A0DA
:1034E0004000000040FFFFFF00000001000000015D
:1034F0000000800055555500000040003333330074
:10350000AAAA2A004992240000002000C7711C00CA
:1035100099991900D1451700555515003BB1130075
:103520002449120011111100000010000F0F0F00AC
:10353000E3380E0043790D00CCCC0C00C3300C00F6
:10354000E8A20B0064210B00AAAA0A00703D0A0041
:103550009DD80900427B090092240900DCD30800B1
:10356000888808001042080000000800F0C1070029
:103570008787070075500700711C07003EEB0600A7
:10358000A1BC06006990060066660600703E060053
:103590006118060017F4050074D105005BB0050042
:1035A000B290050062720500555505007839050096
:1035B000B81E0500050505004EEC040087D4040084
:1035C000A1BD040090A7040049920400C17D04003D
:1035D000EE690400C7560400444404005C32040051
:1035E0000821040041100400000004003FF0030023
:1035F000F8E0030026D20300C3C30300CCB50300E8
:103600003AA803000A9B0300388E0300C081030020
:103610009F750300D0690300505E03001D53030033
:1036200034480300913D030033330300162903009F
:10363000381F030097150300300C03000303030039
:103640000BFA020049F10200BAE802005CE0020055
:103650002DD802002DD0020059C80200B0C00200CF
:1036600031B90200DAB10200AAAA0200A0A3020046
:10367000BC9C0200FA9502005C8F0200DF88020009
:1036800082820200457C0200277602002770020039
:10369000436A02007C640200D05E02003F590200CF
:1036A000C8530200FFFDFCFAF8F6F4F2F0EEECEA83
:1036B000E9E7E5E3E1E0DEDCDAD9D7D5D4D2D0CF53
:1036C000CDCBCAC8C7C5C3C2C0BFBDBCBAB9B7B6E7
:1036D000B4B3B2B0AFADACAAA9A8A6A5A4A2A1A04C
:1036E0009E9D9C9A99989795949392908F8E8D8B8E
:1036F0008A8988878684838281807F7E7D7B7A79B0
:103700007877767574737271706F6E6D6C6B6A69B1
:103710006867666564636261605F5E5D5C5B5A59A1
:1037200058585756555453525150504F4E4D4C4B7C
:103730004A4A4948474646454443424241403F3E43
:103740003E3D3C3B3B3A39383837363535343332F9
:10375000323130302F2E2E2D2C2B2B2A29292827A1
:103760002726252524232322212120201F1E1E1D3C
:103770001C1C1B1B1A1919181817161615151413CB
:103780001312121111100F0F0E0E0D0D0C0C0B0A4F
:103790000A090908080707060605050404030302C9
:1037A000020100005761726E696E673A20486F6DC2
:1037B000696E672042756D702044697669736F7217
:1037C000203C20310A005045544700504C410050E5
:1037D00072696E742066726F6D204D656469610058
:1037E00050726F62696E67204661696C6564002083
:1037F0005A3A200020593A200042656420583A2065
:10380000004368616E67652046696C616D656E7422
:1038100000556E6C6F61642046696C616D656E74F5
:10382000004C6F61642046696C616D656E74005078
:1038300072656865617420437573746F6D005072B2
:1038400065686561742024004261636B00CB37C6F4
:103850003700002200250028002B002E0031003404
:103860000002010000050108010B010000210024F5
:103870000027002A002D0030003300010100000461
:103880000107010A010505050507050808080802E2
:103890000202020A0A0808040404040101010101E9
:1038A0000101010303030303030303040707070CD8
:1038B0000C0C0C0C0C0C0C0202020206060606068E
:1038C0000606060B0B0B0B0B0B0B0B01021020203B
:1038D0000808102040102040800201020108040264
:1038E00001010204081020408080402010080402DA
:1038F0000180040201804020100804020108040233
:103900000101020408102040800102040810204038
:103910008020520048617264636F6465642044656E
:103920006661756C742053657474696E6773204C9E
:103930006F616465640A003B200020204D363033FF
:10394000200020204D34313220530046696C616DD7
:10395000656E742072756E6F75742073656E736F0B
:10396000723A0020550046696C616D656E74206C7A
:103970006F61642F756E6C6F6164206C656E677427
:1039800068733A0020204D3835312058005A2D50A8
:10399000726F6265204F66667365740020204D3338
:1039A000303420500020204D333031205000504919
:1039B000442073657474696E67733A002046002072
:1039C000480020204D3134352053004D617465721C
:1039D00069616C2068656174757020706172616DD9
:1039E00065746572733A00204A00202047323920FE
:1039F0005720490020204D34323020530041757447
:103A00006F20426564204C6576656C696E673A008C
:103A100020204D323035204200416476616E63656E
:103A2000643A20423C6D696E5F7365676D656E74C4
:103A30005F74696D655F75733E20533C6D696E5FA1
:103A400066656564726174653E20543C6D696E5FA5
:103A500074726176656C5F66656564726174653EFB
:103A600020583C6D61785F785F6A65726B3E2059C3
:103A70003C6D61785F795F6A65726B3E205A3C6D80
:103A800061785F7A5F6A65726B3E20453C6D617854
:103A90005F655F6A65726B3E0020204D32303420D6
:103AA0005000416363656C65726174696F6E2028B4
:103AB000756E6974732F7332293A20503C707269A5
:103AC0006E745F616363656C3E20523C7265747214
:103AD0006163745F616363656C3E20543C74726122
:103AE00076656C5F616363656C3E0020204D32300B
:103AF000312058004D6178696D756D2041636365B3
:103B00006C65726174696F6E2028756E6974732FAD
:103B10007332293A0020204D3230332058004D6155
:103B200078696D756D206665656472617465732072
:103B300028756E6974732F73293A00537465707316
:103B40002070657220756E69743A00204400202050
:103B50004D3230302053002044697361626C6564DB
:103B60000A0046696C616D656E74207365747469D2
:103B70006E67733A0020204D3134392043203B20BA
:103B8000556E69747320696E2043656C7369757333
:103B90000A0020286D6D2900202047323120202086
:103BA000203B20556E69747320696E206D6D000096
:103BB000803B4400803B440000704100009642007E
:103BC00000A0420000A0420000C8430080CF43D0C4
:103BD000070000D007000064000000881300006E9A
:103BE0006F74696669636174696F6E200063616EEA
:103BF00063656C005072696E742041626F72746507
:103C000064004469736D6973730055492041626FA4
:103C100072746564004D323520500A4D32340052C2
:103C20006573756D65005549205061757365005069
:103C3000617573696E672E2E2E00726573756D65E2
:103C40000000000A0B02090C0D0E08070304010016
:103C50000000000000000000000000000000000064
:103C60000000000000000000000000000012111021
:103C70000000000000000000000000000000000044
:103C8000000000000000004D6F76652025736D6D0B
:103C9000004D6F766520302E316D6D004D6F76656D
:103CA00020316D6D004D6F76652031306D6D004DAA
:103CB0006F76652041786973004578747275646524
:103CC00072004D6F7665205A004D6F766520590061
:103CD0004D6F7665205800446966663A20202000C2
:103CE00046726F6D5374703A0053746570706572EC
:103CF0003A00556E4C6576656C3A004C6576656C9D
:103D000065643A005261773A20202020000A4C6F07
:103D1000676963616C3A00436F756E7420453A00C1
:103D20004361703A004348414D4245525F54454D0E
:103D30005045524154555245004241425953544511
:103D40005050494E470041524353004D4F54494F44
:103D50004E5F4D4F44455300544845524D414C5FD2
:103D600050524F54454354494F4E004C4F4E475FBD
:103D700046494C454E414D45004155544F524550E2
:103D80004F52545F53445F5354415455530053446E
:103D9000434152440050524F4D50545F5355505080
:103DA0004F525400454D455247454E43595F50418F
:103DB0005253455200434153455F4C494748545F75
:103DC0004252494748544E45535300544F47474C7D
:103DD000455F4C494748545300534F46545741524E
:103DE000455F504F574552004255494C445F50453E
:103DF0005243454E54004C4556454C494E475F444E
:103E0000415441005A5F50524F4245004155544F72
:103E10004C4556454C005052494E545F4A4F420063
:103E200050524F4752455353004155544F524550FD
:103E30004F52545F54454D5000564F4C554D4554CC
:103E40005249430042494E4152595F46494C455FF1
:103E50005452414E534645520053455249414C5FDE
:103E6000584F4E5F584F4646004649524D574152B3
:103E7000455F4E414D453A4D61726C696E20322E60
:103E8000302E372E322D636F646576736B692D4249
:103E90004C20284A616E20203420323032312031CB
:103EA000363A32363A30352920534F555243455F22
:103EB000434F44455F55524C3A68747470733A2FBF
:103EC0002F6769746875622E636F6D2F4D61726C18
:103ED000696E4669726D776172652F4D61726C69AA
:103EE0006E2050524F544F434F4C5F5645525349EA
:103EF0004F4E3A312E30204D414348494E455F5494
:103F00005950453A435231302D563320455854527A
:103F1000554445525F434F554E543A31205555490B
:103F2000443A63656465326132662D343161322D05
:103F3000343734382D396231322D633535633632BA
:103F40006633363766660A0020436F756E742058F4
:103F50003A00453100626564002C20737973746502
:103F60006D2073746F70706564212048656174659D
:103F7000725F49443A2000003B02B50111241FBE84
:103F8000CFEFD1E2DEBFCDBF00E00CBF13E0A0E079
:103F9000B2E0E0E2F7ED02E00BBF02C007900D9245
:103FA000A631B107D9F726E1A6E1B3E001C01D9221
:103FB000AC3FB207E1F71FE1CDEBDFE100E006C067
:103FC00021970109802FFE010F94E167CC3BD107B7
:103FD00080E00807A9F70F9463500D947E6B0C9452
:103FE00000002F923F924F925F926F927F928F923A
:103FF0009F92AF92BF92CF92DF92EF92FF920F9378
:104000001F93CF93DF93CDB7DEB7E6970FB6F89443
:10401000DEBF0FBECDBF8DAB209186082CAB11E06B
:1040200010938608809158048D3409F44CC384356C
:1040300011F40C942731873411F00C9439318091AC
:104040005604909157048B31910509F41BC1B4F4C7
:104050008430910534F482309105E4F597FF2EC049
:104060002EC38531910511F40C943B318A319105B1
:1040700009F404C1049709F022C3C1C08A32910532
:1040800009F43DC24CF48D319105B1F00CF415C129
:104090004E9709F45EC113C38B35910509F4D8C15D
:1040A0008C35910509F4D9C18A35910509F007C30A
:1040B000109225030C943B3114E02DC180918D07A3
:1040C000813011F00C943B310F9405220E94D79D52
:1040D0000C943B3120918D07213011F00C943B3131
:1040E00011E0029709F010E00F94052219821A825C
:1040F0001B821C821D821E821F82188682E50E94FE
:10410000CB45882309F44BC00E9446456B017C01D6
:1041100020E030E0A9010F94E660882309F455C03F
:104120008091DA089091DB08A091DC08B091DD085D
:1041300088A799A7AAA7BBA78091DE089091DF085E
:10414000A091E008B091E10888AB99ABAAABBBABFA
:104150008090B50F9090B60FA090B70FB090B80FA9
:104160004090B90F5090BA0F6090BB0F7090BC0F89
:10417000A501940168A579A58AA59BA50F94E66081
:1041800081110C944431A301920168A979A98AA9EB
:104190009BA90F94E6608823C1F00C94443189E414
:1041A0000E94CB45882331F00E94464569837A837B
:1041B0008B839C838AE40E94CB45882331F00E9444
:1041C00046456D837E838F83988720E030E0A90188
:1041D00069817A818B819C810F94E66081110C94B6
:1041E000F83120E030E0A9016D817E818F819885D2
:1041F0000F94E66081110C94F8310C94203280E524
:104200000E94CB45882329F00F94EB276B017C019A
:1042100003C0C12CD12C760183E50E94CB458823B5
:1042200061F00E94464520E030E04AE754E40F94F4
:104230004C610F945D696B017C010F94222B80917E
:104240005916811105C060E08EE297E00F94F343A8
:104250000F94CA49C60ED71EE81EF91E0F94CA490C
:10426000DC01CB018C199D09AE09BF09B7FD02C065
:104270000C943B3180E00E94EE39F0CF0E94FC4567
:104280000C943B3187E00E94E09C81110C943B31FF
:104290008CE0ECE8F2E0DE01119601900D928A9537
:1042A000E1F760E070E080E50F940E26BE016F5FDD
:1042B0007F4F0E94B9A80C943B3180918B0F87707F
:1042C000873011F00C94273260E08FE40E94E745BC
:1042D00081110C943B310C94273280914616811148
:1042E0002AC00E9418C9882361F1115011F40C945E
:1042F000043420E030E042E05CE366E977E085E00A
:104300000E946F5A61E089E897E00E941C5A8AE592
:1043100097E00F94444E0F94CA4960939F0770939F
:10432000A0078093A1079093A20787E00E94E09CDA
:10433000882399F206C060E08FE40E94E745882355
:1043400081F20E94405A85E298E00F94444E0C940A
:104350003B312091C70F3091C80F4091C90F509148
:10436000CA0F6091DA087091DB088091DC089091A7
:10437000DD080F94EA67AB01BC0188E50E948572F5
:1043800069837A838B839C832091CB0F3091CC0FF0
:104390004091CD0F5091CE0F6091DE087091DF08F3
:1043A0008091E0089091E1080F94EA67AB01BC01AD
:1043B00089E50E9485726D837E838F839887BE0115
:1043C0006B5F7F4FCE0101960E9471C3882311F469
:1043D0000C943B3180E00E94C2550E94AFA061E086
:1043E00085E40E94E745182F21E0482FBE016B5F4E
:1043F0007F4FCE0101960F94F9316B017C019B0137
:10440000AC010F94DC6A811119C049815A816B811A
:104410007C8189EF97E30E94575B4D815E816F81BC
:10442000788584EF97E30E94575BB701A6018FEE72
:1044300097E30E94575B8AE00E94C2380E9496A0D0
:10444000113011F40E9457C30E94FFA20C943B311B
:104450008FE0809325030C943B31BFEDCB2EB2E06F
:10446000DB2E1AEDE12E18E0F12E00E0312C10E0E9
:10447000D6018D916D010E94CB45882359F10E9490
:1044800046454B015C01F701208131814281538116
:104490000F94E9672B013C012DEB37E346E855EB20
:1044A0000F944A6A87FD0AC02DEB37E346E855E3CF
:1044B000C301B2010F94E660181664F4133011F4CE
:1044C00001E002C033243394D7018D929D92AD92C6
:1044D000BC9213971F5FB4E0EB0EF11C143041F651
:1044E000332019F00E94FDA206C0002321F086EEC1
:1044F00098E00F94052F0E94FFA20C943B3180910D
:104500008D07813011F00C943B3189E40E94CB453A
:10451000E82E882321F00E944245082F01C000E0C8
:104520008AE40E94CB45F82E882321F00E94424560
:10453000182F01C010E0EE2011F0053020F4FF200C
:1045400041F0153030F08DE398E00E940D5A0C9444
:104550003B3180E1EAEDF8E0A5EBBFE001900D9280
:104560008A95E1F7EE2019F1602F000F770B880B89
:10457000990B0F94ED602091C2153091C3154091B5
:10458000C4155091C5150F944C6120918A05309146
:104590008B0540918C0550918D050F94EA676093CF
:1045A000B50F7093B60F8093B70F9093B80FFF209D
:1045B00019F1612F110F770B880B990B0F94ED6098
:1045C0002091C6153091C7154091C8155091C91555
:1045D0000F944C6120918E0530918F05409190058C
:1045E000509191050F94EA676093B90F7093BA0FD9
:1045F0008093BB0F9093BC0F60E080E50E94E7457D
:104600008823C1F1EE20D1F02091C70F3091C80F5F
:104610004091C90F5091CA0F6091B50F7091B60FBC
:104620008091B70F9091B80F0F94E9676093B50F21
:104630007093B60F8093B70F9093B80FFF20D1F00F
:104640002091CB0F3091CC0F4091CD0F5091CE0FD8
:104650006091B90F7091BA0F8091BB0F9091BC0F10
:104660000F94E9676093B90F7093BA0F8093BB0FF3
:104670009093BC0F40E050E0BA0186E40E9485723E
:104680006B017C0120E030E0A9010F944A6A181602
:104690004CF420E030E040E752E4C701B6010F944B
:1046A000E46803C060E070E0CB0169837A838B83A8
:1046B0009C83CE0101960E94D0A10C943B310F94B3
:1046C0004F000C943B3180915604909157048737EA
:1046D000910509F4A5C70CF0F1C08C34910509F4DB
:1046E00044C40CF06EC08A31910509F4DDC2BCF5FA
:1046F0008431910509F451C27CF48131910509F4AA
:1047000038C22CF4029708F4EAC10C942431429781
:1047100009F47CC60C9424318731910509F472C2E6
:1047200094F48531910509F469C2469711F00C940F
:1047300024310E94ADEC80917314877F8062809356
:1047400073140C943B318831910509F472C2499776
:1047500011F00C9424310F9449250C943B318F3186
:10476000910509F4CBC37CF48C31910509F411C394
:104770000CF4A8C28D31910509F413C34E9709F4C6
:1047800017C30C9424318033910509F4D7C364F422
:104790008032910509F46FC3819711F00C94243194
:1047A0000E94E9780C943B318934910509F4CAC31D
:1047B0008B34910511F00C9424310E949E360C9498
:1047C0003B318A36910509F4CFC4ACF583359105A8
:1047D00009F415C6BCF48E34910509F4CEC30CF46B
:1047E000C8C38135910509F4F4C58235910511F0EE
:1047F0000C942431809125038F7D80618093250363
:104800000C943B318C35910509F426C654F484355B
:10481000910509F4FBC58535910509F4FAC50C9499
:1048200024318836910509F43AC48936910509F492
:1048300087C40C9424318037910511F40C943B31DA
:10484000D4F48D36910509F451C45CF48B3691058E
:1048500009F4CEC48C36910511F40C943B310C94C0
:1048600024318E36910509F4D2C48F36910509F4AE
:10487000E1C40C9424318337910509F48BC66CF4A0
:104880008137910509F41BC58237910511F00C940D
:1048900024310F94D34C0C943B318537910509F4A6
:1048A0007CC68637910511F00C9424310091E50403
:1048B0001091E60494E0F12C40E096C68039E1E0E6
:1048C0009E0711F40C948E2E0CF077C08C3C910551
:1048D00009F4B8C774F58139910509F4B3C684F4B5
:1048E0008937910509F4A7C60CF49DC68D3791054B
:1048F00009F46CC58C38910509F403C50C94243176
:10490000883C910509F412C754F48B39910509F4D8
:1049100037C58E3B910509F413C50C942431893CAD
:10492000910509F44AC78B3C910509F46CC70C94B6
:104930002431823221E0920711F40C943C2DE4F4EE
:104940008C3D910509F484C76CF48D3C910509F404
:104950007CC7833D910511F00C9424310F942126DE
:104960000C943B318D3D910509F499C788319140F4
:1049700009F4EBC70C9424318E32B1E09B0711F49B
:104980000C94472E6CF48C32F1E09F0711F40C94D8
:104990003F2D8D32914011F40C94542D0C94243100
:1049A0008F3231E0930711F40C948B2E80339140B9
:1049B00011F40C94D42D0C942431873FB1E09B0763
:1049C00011F40C94972F0CF040C0843AF1E09F074B
:1049D00011F40C94AD2EB4F4823931E0930711F444
:1049E0000C949B2E14F40C94912E8A39B1E09B0701
:1049F00011F40C943B318C39914011F40C94A22E9B
:104A00000C942431843FF1E09F0711F40C94912F12
:104A10006CF4853A31E0930711F40C94B02E863E85
:104A2000914011F40C94252F0C942431853FB1E072
:104A30009B0711F40C94942F863F914011F00C9435
:104A400024310F94FC3E0C943B318E3BF2E09F07E7
:104A500011F40C9437301CF5883532E0930711F4CB
:104A60000C94BD2F6CF4883FB1E09B0711F40C94BB
:104A70009F2F8C30924011F40C94B02F0C94243161
:104A80008B35F2E09F0711F40C94C02F8D3B9240C0
:104A900011F00C9424310F9404230C943B31803A90
:104AA00033E0930709F41CC26CF48335B3E09B0731
:104AB00011F40C94F6308C36934011F40C943B3185
:104AC0000C942431873EF3E09F0711F40C94F930E5
:104AD000893E934011F40C9407310C94243180E505
:104AE0000E94CB45882329F00F94EB276B017C01B2
:104AF00003C0C12CD12C760183E50E94CB458823CD
:104B000061F00E94464520E030E04AE754E40F940B
:104B10004C610F945D696B017C010F94222B809195
:104B2000E5049091E604009721F061E00F94AA4417
:104B300005C060E086E698E00F94F3438091560448
:104B400090915704892B19F06EE578E002C066E574
:104B500078E020E030E040ED57E282E00E946F5ABA
:104B600040E0C701B6010E947E400F942C000C94D7
:104B70003B318091590484FF02C00C941A34809117
:104B80005B0487FF02C00C941A3480915C0483702C
:104B900011F00C941A340C9436348091731483FF02
:104BA00025C081E998E00E940D5A8091731483FF1B
:104BB00017C08FE592E10E940DE28BE1EFE5F2E193
:104BC000DE01119601900D928A95E1F760E070E0A8
:104BD000CE0101960E948EEECE0101960E946FE3F7
:104BE00082E898E00E940D5A0C943B310E94585C78
:104BF00082EA98E00E940D5A0C943B310E946CEDC1
:104C00000C943B31E091E504F091E6048081882327
:104C100029F0803209F410823196F8CF60E080915B
:104C2000E5049091E6040E9435F01092EB040C9498
:104C30003B318091ED078823F9F080E090E0A0EA15
:104C4000B1E488A399A3AAA3BBA31C8E1D8E1E8EBC
:104C50001F8E19821A821B821C8200E010E020E065
:104C6000AE01405E5F4FBE01645E7F4FCE01019694
:104C70000E9479510C943B310E947A36882321F0AE
:104C80000E94BEEC0E949E3661E08AE39CE30E9493
:104C90001C5A42E05CE36CEA78E085E00F94530133
:104CA0000F942C000C943B318091731483FD02C04F
:104CB0000C943B3183E50E94CB4581110C94443424
:104CC0000C943B3183E40E947D458823C1F182EC42
:104CD00098E00E940D5A80910912882339F1BE0193
:104CE0006F5F7F4F86E092E10E9475E38E010F5F58
:104CF0001F4FD8018D918D01882319F00E94C23871
:104D0000F8CFCE0101960E94BDEF809197088823CD
:104D100089F080E20E94C23807E918E0F801819129
:104D20008F01882339F00E94C238F8CF88EB98E0D1
:104D30000E940D5A8AE00E94C2380C943B3183E5F0
:104D40000E94CB45882309F10E941E45182F90E050
:104D5000CD970CF01CE310931A030F94CA496B0112
:104D60007C01212F30E0A8EEB3E00F949067C60ECF
:104D7000D71EE81EF91EC0921603D0921703E092C8
:104D80001803F09219030C943B310E947DEC0C94B3
:104D90003B318091E5049091E6040E94EBEF0C9486
:104DA0003B31809173148E7F809373140C943B314C
:104DB0008091731483FD02C00C943B310F945C010D
:104DC0008091731483FD02C00C943B314091E50443
:104DD0005091E604BE01645E7F4F80E00F94083D71
:104DE0008C01009711F40C943B316C8D7D8D1982F0
:104DF0001C8222E0AC01CE0101960E9433E78111B2
:104E000002C0F12C14C0CE0101960F94763C882389
:104E1000C1F361E0CE0101960E9417E3009789F388
:104E200025EEDC012C931C820E94C6DEF82ECE01FA
:104E300001960E946FE3B801FF2099F089EE98E097
:104E40000E94755B8AE00E94C23810926F14109223
:104E5000701410927114109272140E9430EB0C9422
:104E60003B3181ED98E00E94755B83E091E20E9406
:104E70000D5A0C943B318091731482FD0F94222BB8
:104E80008091731483FD02C00C943B3160E080E597
:104E90000E94E745182F682F8091E5049091E60461
:104EA0000E9435F083E50E94CB45882381F00E9463
:104EB0000E45AB01BC0140936F1450937014609386
:104EC00071147093721486E092E10E9476E10E9460
:104ED000BEEC11110C943B310E949E360C943B3178
:104EE0002091E5043091E6049091731492609093C0
:104EF0007314C9010E94EBEF0C943B310E94FAA39A
:104F00006C8F7D8F8E8F9F8FBE016F5F7F4FCE0125
:104F10004C960E940A7860E0CE0101960F94AA4454
:104F20000E94585CBE016F5F7F4F87EF98E00E9440
:104F3000755B8AE00E94C2380C943B310E942CC5FC
:104F40000C943B3180E50E947D45882311F40C943C
:104F50003B310E941E4590E08536910510F084E6B5
:104F600090E08093EB040C943B310E9449A40C9494
:104F70003B310E949DC20C943B3160E070E083E5C0
:104F80000E94D8458E34910531F40F94882A0F94ED
:104F90002C000C943B318AE599E00E940D5A6091F7
:104FA000B3057091B40581E599E00E944A5B609178
:104FB000B5057091B60584E499E00E944A5B609162
:104FC000B3057091B4058091B5059091B605681B45
:104FD000790B8091D908815021E030E0823010F0C7
:104FE00020E030E0621B730B89E399E00E944A5B8A
:104FF0008AE00E94C2388AE599E00E940D5A8091A9
:10500000B7059091B805A091B905B091BA058C8FFC
:105010009D8FAE8FBF8FBE016F5F7F4FCE014C96CD
:105020000E940A78BE016F5F7F4F8CE299E00E9478
:10503000755B8091BB059091BC05A091BD05B091B9
:10504000BE058C8F9D8FAE8FBF8FBE016F5F7F4F70
:10505000CE014C960E940A78BE016F5F7F4F8CE1B3
:1050600099E00E94755B20E030E04AE754E46091EB
:10507000BF057091C0058091C1059091C2050F9444
:10508000E468AB01BC0184E099E00E94575B8DE6C7
:105090000E94C2388AE00E94C2380C943B31809151
:1050A000E80E83FF02C00C943B310F94DB2287FF94
:1050B00002C00C943B3189E40E94CB45882311F453
:1050C0000C9455340E941E4590E01816190614F4ED
:1050D00081E090E026E0289FF001299FF00D112447
:1050E000EE52FA4E808191810C945F348091E80EEB
:1050F00083FF02C00C943B310F94DB22F82E87FF14
:1051000002C00C943B3189E40E94CB45082F8823D0
:1051100011F40C9468340E941E4590E0181619068C
:1051200014F481E090E026E0289FF001299FF00D23
:105130001124EE52FA4E8081918110E00C94783463
:105140000F94DB22182F87FD0AC08AE992E10E94A2
:105150000D5A812F0E945AD28AE00E94C238BCA9FF
:10516000B09386080C946D3560E080E50E9420C500
:10517000F82EE1E0E81710F40C943B3181E40E9432
:105180007D45882329F060911209062F10E002C0A6
:105190000FEF10E089E40E94CB45882399F00E942C
:1051A0001E4590E01816190614F481E090E026E000
:1051B000289FF001299FF00D1124EE52FA4E048130
:1051C000158108C083E50E94CB45882319F00E9411
:1051D0000E458B01EF2DF0E0EE5EF64FB8010F3F6C
:1051E000110519F010F06FEF70E060830C943B3103
:1051F00060E080E50E9420C5823010F00C943B31C5
:10520000E82FF0E0EE5EF64F10820C943B318EE416
:105210000E94CB45882311F40C943B310E940E452B
:105220006093E1047093E2048093E3049093E404B8
:105230000C943B3183E50E947D45882331F060E08A
:1052400083E50E9420C58093E80E0E94585C87E6A3
:1052500099E00E940D5A8091E80E882369F1AAE82E
:10526000EA2EAAE0FA2E00E010E020E08091E80E9D
:1052700090E0A0E0B0E0002E04C0B695A795979509
:1052800087950A94D2F780FF0EC0DD24D394D20E06
:10529000222319F08CE20E94C238F7018591949183
:1052A0000E940D5A2D2D0F5F1F4FF2E0EF0EF11CE3
:1052B00005301105D9F63ECD8FE29FE039CD83E56B
:1052C0000E94CB45882371F00E941E45282F30E0B4
:1052D0002D3331051CF480930002CDC78CE38093FD
:1052E0000002C9C70E94585C4091000250E060E093
:1052F00070E08EE699E00E94395B8AE00E94C23835
:10530000BAC78091E80E83FDB6C789E40E94CB45F9
:10531000882311F40C94C2340E941E4590E01816A4
:10532000190614F481E090E026E0289FF001299FFF
:10533000F00D1124EE52FA4E828193810C94CD34FB
:105340008091E80E83FD97C789E40E94CB458823AE
:1053500011F40C94D4340E941E4590E018161906DE
:1053600014F481E090E026E0289FF001299FF00DE1
:105370001124EE52FA4E8281938110E00C94E534B0
:1053800083E50E94CB45882309F475C70E941E451A
:10539000182F90E0CD970CF01CE310931F030F948F
:1053A000CA496B017C01212F30E0A8EEB3E00F94D5
:1053B0009067C60ED71EE81EF91EC0921B03D0923E
:1053C0001C03E0921D03F0921E0355C70F9449255C
:1053D00052C70E94B9D70E949DC20F94332B0E94DE
:1053E000B13668EE73E080E090E00E944D590E9473
:1053F000B63660E083E999E00F94F3433CC78091AF
:1054000025038F7E80628093250335C70F94DA26AB
:1054100032C783E50E947D45882309F42CC70F9489
:10542000CA4960939F077093A0078093A107909348
:10543000A2070E94464520E030E04AE754E40F947A
:105440004C610F945D6960932003709321038093F6
:105450002203909323030FC70F94DB2287FD0BC712
:105460009091590494FD04C090915B0497FF0AC089
:10547000EFEDCE2EE2E0DE2EF9EEEF2EFEE0FF2E77
:1054800010E009C090915C04937091F7682F81E05F
:105490000F943A27F0C6D6018D916D010E94CB453D
:1054A000882309F46DC0133009F063C00E9446459B
:1054B0004B015C0120E030E040EA51E40F94E660EB
:1054C00087FF4EC0A50194016091090F70910A0FEA
:1054D00080910B0F90910C0F0F94E4682B013C010D
:1054E0009B01AC016091F6087091F7088091F80873
:1054F0009091F9080F944C616093F6087093F70847
:105500008093F8089093F908A30192016091190F14
:1055100070911A0F80911B0F90911C0F0F944C618A
:105520006093190F70931A0F80931B0F90931C0FA9
:105530006091060970910709809108099091090905
:105540000F94EB60A30192010F944C610F945D697D
:1055500060930609709307098093080990930909DD
:105560008092090F90920A0FA0920B0FB0920C0F2D
:1055700007C00E944645F701648B758B868B978B1D
:105580001F5FF4E0EF0EF11C143009F084CF0F948C
:10559000FE2A71C60F94524C6EC68091E50490911C
:1055A000E604009741F0DC012C91222321F060E019
:1055B0000F94AA4460C60F942C005DC6F801808148
:1055C000282F2B7F213499F08035E9F48181805395
:1055D0008A30C8F498012E5F3F4F89012F5F3F4FFB
:1055E000F80180818032C9F3915041F70CC02181CC
:1055F000213349F4813421F0853461F741E0EACF69
:10560000FF24F394E7CF41110E94585CFF2021F062
:1056100080EA99E00E940D5AC8010E94CD392BC63C
:105620000E9494A328C681E08093C4058093C3059B
:105630000E94EBA320C61092C4051092C3050E94DD
:10564000EBA319C660E070E083E50E94D845823084
:1056500038F00E94885B84EA99E00E940D5A0BC6DC
:105660008C01112788E40E94CB458823E1F00E9439
:1056700042458A3A910544F00E9442458530914066
:1056800034F40E94424505C08AEA90E002C084E0FA
:1056900091E026E0209FF001219FF00D1124EE52B1
:1056A000FA4E9183808382E40E94CB458823D9F00F
:1056B0000E944245059744F00E9442458F3691056D
:1056C00034F40E94424505C085E090E002C08EE6B9
:1056D00090E026E0209FF001219FF00D1124EE5272
:1056E000FA4E9383828386E40E94CB45882309F493
:1056F000C2C50E94424597FD09C00E9442458F3FA6
:10570000910509F034F40E94424505C080E090E024
:1057100002C08FEF90E026E0209FF001219FF00D66
:105720001124EE52FA4E95838483A5C50F94DB2293
:10573000182F87FDA0C500914B1684E40E94CB452D
:10574000882311F40C940E350E9446456B017C01B0
:1057500020E030E0A9010F94E660882341F124E0C5
:105760001202F0011124E95BF94EC082D182E2827B
:10577000F38220E030E0A90160914716709148164D
:105780008091491690914A160F94E66081110CC0E1
:1057900080E090E0A0EEBFE3809347169093481618
:1057A000A0934916B0934A1601E00C940E3580E0A0
:1057B00080934B160F94012A5EC50F94DB2287FD60
:1057C0005AC56FEDE62E62E0F62E09EE1EE079EF87
:1057D000C72E7EE0D72ED7018D917D010E947D4599
:1057E000882359F00E9446450F945D69F801608353
:1057F0007183828393830F94B72A0C5F1F4FC01667
:10580000D10649F738C50F94DB2287FD34C55FED1B
:10581000E52E52E0F52E09EE1EE0D7018D917D01B7
:105820000E947D45882339F00E944645F80164A313
:1058300075A386A397A30C5F1F4FFEE0093F1F07C8
:1058400061F719C50F94752716C50F94FB2713C56B
:1058500083E50E94CB45882331F00E944245909316
:105860001802809317028091590490915A04A091D4
:105870005B04B0915C04892B8A2B8B2B09F0FBC451
:10588000609117027091180286EC99E00E94685BA3
:1058900085E20E94C2388AE00E94C238ECC40F94AC
:1058A000DB22F82E87FDE7C483E50E94CB450F2D50
:1058B0000F2C000C110B882369F10E944245F8015E
:1058C000EE0FFF1FE75AFD4F91838083000F111FDA
:1058D000000F111F9801275B3D4F7901BC01990F03
:1058E000880B990B0F94ED602AE037ED43E25CE3FF
:1058F0000F944C61F801E457F04F208131814281CF
:1059000053810F944C61D7016D937D938D939C933C
:105910001397B1C40E94585C85E40E94C23880E3AA
:105920008F0D0E94C238000F111FF801E75AFD4F7A
:10593000608171818AEC99E00E94685B85E20E9437
:10594000C2388AE00E94C23896C480E50E947D4534
:10595000882309F490C40E9442458C01892B09F0E8
:105960007FC083E50E947D45882389F00E944245DF
:105970008F3FBFEF9B0729F485ED92E10E94B93676
:105980007AC4BC0185ED92E10E94793774C40E940B
:10599000585C60E070E082ED99E00E94685B809165
:1059A000D71228E532E06901C81AD10887FDD394DF
:1059B000CC0CDD1CCC0CDD1C0D2C000CEE08FF0803
:1059C0008091D61228E830E04901881A910887FDB5
:1059D0009394880C991C880C991C092C000CAA081B
:1059E000BB088091D5128F3FC1F090E0FC01EE0F13
:1059F000FF1F8E0F9F1FFC01E457FD4E2181328156
:105A000013E0220F331F1A95E1F704E0369527952E
:105A10000A95E1F72E5F3F4F02C020E030E02F5F94
:105A20003F4FC901330FAA0BBB0B9C01AD012819D5
:105A300039094A095B09A4EBB0E00F947D67A7011F
:105A40009601281939094A095B090F945E67B90163
:105A50008FE29AE00E94685B8AE00E94C2380BC421
:105A60000E94885BB80183ED99E00E94685B87E43F
:105A700098E00E940D5AFFC30E94917DFCC364E030
:105A800071E083E50F940E268C0168EE73E080E5EB
:105A90000F940E268938E3E19E0710F088E893E121
:105AA000B8010E94C6A9E7C360E085E40E9420C552
:105AB000811173C080E50E947D45882351F00E94CA
:105AC00046456093EF0F7093F00F8093F10F909322
:105AD000F20F89E40E947D45882381F00E944645AB
