:100000000C944F210C9480210C9480210C9480211D
:100010000C9480210C9480210C9480210C948021DC
:100020000C9480210C9480210C9480210C948021CC
:100030000C9480210C9480210C9480210C948021BC
:100040000C9480210C9408EA0C9480210C9480215B
:100050000C9480210C9480210C9445E60D940B4D5A
:100060000C9480210C94EC780C94D8780C9480211A
:100070000C9480210C9480210C9480210C9480217C
:100080000C94C2770C9480210C9480210C948021D4
:100090000C94F0770C94E2780C9480210C948021DD
:1000A0000C9480210C9480210C9494770C948021E2
:1000B0000C9480210C9480210C9480210C9480213C
:1000C0000C9480210C9480210C9480210C9480212C
:1000D0000C9480210C9480210C9480210C9480211C
:1000E0000C948021084AD73B3BCE016E84BCBFFDF7
:1000F000C12F3D6C74319ABD56833DDA3D00C77FF8
:1001000011BED9E4BB4C3E916BAAAABE0000008090
:100110003F05A84CCDB2D44EB93836A9020C50B91F
:10012000918688083CA6AAAA2ABE000000803F004B
:100130000D943F5A0D94A14B0D9411190D949F2CC1
:100140000D94F72B0D94C7120D94744B0D94084C1D
:100150000D948F1D0D94814C0D948F4B0D947B4B02
:100160000D94364C0D94A74B0D94FE4B0D942C4CD6
:100170000D9424170D94E74B0D94934B0D94C92BBC
:100180000D94C3120D949D4B0D94594C0D941A4C23
:100190000D945A4B0D948B4B0D946C4B0D94F62B88
:1001A0000D94AB4B0D94CB120D94415A0D945F5AA4
:1001B0000D94704B0D94554B0D94784B0D946D4CE4
:1001C0000D94854B0D94124C0D94ED1A0D94771CE3
:1001D0000D944F4C0D947B100D94994B0D94371743
:1001E0000D94EF4B0D94814B0D9418170D94F44B17
:1001F0000D94404C0D94774C0D94224C0D94532249
:100200000D94634C4E414E494E495459494E46CD8A
:10021000CCCC3D0AD7233C17B7D13877CC2B3295BD
:1002200095E6241FB14F0A000020410000C842009B
:10023000401C4620BCBE4CCA1B0E5AAEC59D740065
:10024000407A10F35A00A0724E18090010A5D4E8A5
:100250000000E87648170000E40B54020000CA9A38
:100260003B000000E1F5050000809698000000408A
:10027000420F000000A086010000001027000000CF
:1002800000E803000000006400000000000A000015
:100290000000000100000000002C76D888DC674FC9
:1002A0000823DFC1DFAE59E1B1B796E5E3E453C6F9
:1002B0003AE651997696E8E6C28426EB898C9B62F1
:1002C000ED407C6FFCEFBC9C9F40F2BAA56FA5F49B
:1002D00090055A2AF75C936B6CF9676DC11BFCE0C3
:1002E000E40D47FEF520E6B500D0ED902E03009416
:1002F0003577050080841E080000204E0A000000AB
:10030000C80C333333330F986E12831141EF8D21B4
:1003100014893BE65516CFFEE6DB18D1844B381B1B
:10032000F77C1D901DA4BBE424203284725E2281E0
:1003300000C9F124ECA1E53D27434F4D4D554E49F1
:10034000434154494F4E0044525952554E00455274
:10035000524F525300494E464F004543484F0045C7
:1003600072726F722077726974696E6720746F2081
:10037000454550524F4D210A0053544F505045446B
:100380002E20005072696E7465722073746F7070E5
:1003900065642064756520746F206572726F727376
:1003A0002E2046697820746865206572726F72200D
:1003B000616E6420757365204D39393920746F2062
:1003C000726573746172742E202854656D70657245
:1003D00061747572652069732072657365742E206F
:1003E0005365742069742061667465722072657348
:1003F00074617274696E67290A004E6F20436865E4
:10040000636B73756D2077697468206C696E652005
:100410006E756D6265722C204C617374204C696E30
:10042000653A20004E6F20436865636B73756D20DD
:1004300077697468206C696E65206E756D6265728F
:100440002C204C617374204C696E653A20006368FF
:1004500065636B73756D206D69736D617463682C72
:10046000204C617374204C696E653A20004C696EB3
:1004700065204E756D626572206973206E6F742001
:100480004C617374204C696E65204E756D626572A7
:100490002B312C204C617374204C696E653A20001E
:1004A0004D3131300053657269616C207374617431
:1004B0007573206D69736D617463680A005344201D
:1004C00072656164206572726F720A002121204B8F
:1004D000494C4C20636175736564206279204B49F7
:1004E0004C4C20627574746F6E2F70696E0A002117
:1004F00021204B494C4C20636175736564206279FF
:1005000020746F6F206D75636820696E6163746914
:1005100076652074696D65202D2063757272656E35
:100520007420636F6D6D616E643A2000627573793B
:100530003A2070617573656420666F7220696E7011
:1005400075740A00627573793A2070617573656419
:1005500020666F7220757365720A00627573793A4E
:100560002070726F63657373696E670A004D65640E
:1005700069612052656D6F766564004D65646961DF
:1005800020496E736572746564004D3130303053AC
:10059000007061757365004D363030002066696CFF
:1005A000616D656E745F72756E6F7574200066693B
:1005B0006C616D656E745F72756E6F75742054003A
:1005C00046696C616D656E7452756E6F75742054FA
:1005D00000506C65617365205265736574005052FC
:1005E000494E5445522048414C5445440025533A05
:1005F00020255300706F7765726F6666004B494C1B
:100600004C45442E20005072696E746572206861FA
:100610006C7465642E206B696C6C28292063616C96
:100620006C6564210A0053544F505045442E2000FD
:100630005072696E7465722073746F707065642097
:1006400064756520746F206572726F72732E204618
:10065000697820746865206572726F7220616E64BB
:1006600020757365204D39393920746F2072657398
:10067000746172742E202854656D70657261747592
:1006800072652069732072657365742E20536574DA
:10069000206974206166746572207265737461727A
:1006A00074696E67290A006563686F3A0045727263
:1006B0006F723A004F4646004F4E0042696C696EB9
:1006C000656172204C6576656C696E67204772695A
:1006D000643A0A0021212053544F502063616C6C0E
:1006E00065642062656361757365206F6620424CA6
:1006F000546F756368206572726F72202D20726569
:1007000073746172742077697468204D3939390ABD
:100710000021212053544F502063616C6C6564208C
:1007200062656361757365206F6620424C546F7516
:100730006368206572726F72202D20726573746118
:1007400072742077697468204D3939390A002F2F67
:10075000616374696F6E3A0070726F6D70745F00E0
:10076000656E6400486F74656E6420746F6F2063FB
:100770006F6C640A0053656E64204D31303820740C
:100780006F20726573756D650A00496E73657274CA
:100790002066696C616D656E7420616E642073659E
:1007A0006E64204D3130380A0052656865617420EE
:1007B000446F6E6500526568656174696E672E2EC0
:1007C0002E00526568656174004865617465722029
:1007D00054696D656F75740053656E64204D3130DA
:1007E0003820746F2068656174206E6F7A7A6C654A
:1007F0000A004E6F7A7A6C65205061726B656400F6
:10080000706175736564005061757365007265731E
:10081000756D656400526573756D696E670047326A
:10082000362043616E63656C65640047323620484C
:10083000656174696E67204E6F7A7A6C6500473225
:10084000362048656174696E6720426564005761AF
:100850006974696E6720666F72206865617475706F
:100860002E0A004669786564204C656E67746820BE
:100870005072696D6500446F6E65205072696D69D4
:100880006E67004D616E75616C207072696D696E86
:10089000672E2E2E004C656176696E6720473236D2
:1008A000003F53706563696669656420582C592060
:1008B000636F6F7264696E617465206F7574206F09
:1008C0006620626F756E64732E0A003F2852296598
:1008D000706561742076616C7565206E6F74207030
:1008E0006C61757369626C653B206D757374206211
:1008F00065206174206C6561737420312E0A003F9D
:10090000537065636966696564206E6F7A7A6C6599
:100910002074656D7065726174757265206E6F7498
:1009200020706C61757369626C652E0A003F5370AC
:10093000656369666965642066696C616D656E747E
:100940002073697A65206E6F7420706C61757369AD
:10095000626C652E0A003F53706563696669656461
:10096000207072696D65206C656E677468206E6FAB
:100970007420706C61757369626C652E0A003F5358
:100980007065636966696564206E6F7A7A6C65204C
:1009900073697A65206E6F7420706C61757369621B
:1009A0006C652E0A003F52657472616374696F6EE4
:1009B000204D756C7469706C696572206D75737407
:1009C000206265207370656369666965642E0A003C
:1009D0003F5370656369666965642052657472612E
:1009E0006374696F6E204D756C7469706C696572A3
:1009F000206E6F7420706C61757369626C652E0A6D
:100A0000003F537065636966696564206C61796550
:100A10007220686569676874206E6F7420706C61FD
:100A2000757369626C652E0A0043292E0A003F53D4
:100A30007065636966696564206265642074656DCC
:100A40007065726174757265206E6F7420706C6170
:100A5000757369626C65202834302D00473236206A
:100A60007374617274696E672E2E2E0A004F4646AB
:100A70000A00466164652048656967687420004221
:100A80006564204C6576656C696E67200046616917
:100A90006C656420746F20656E61626C65204265D0
:100AA00064204C6576656C696E670A00496E7661F4
:100AB0006C6964206D6573682E0A0050726F6269FC
:100AC0006E6720506F696E740025532025692F25AD
:100AD00069002E0A002F0050726F62696E67206DE8
:100AE00065736820706F696E742000202844525925
:100AF00052554E2900473239204175746F204265A6
:100B000064204C6576656C696E67003F20284C2C2C
:100B1000522C462C4229206F7574206F6620626F1C
:100B2000756E64732E0A003F2856296572626F73D2
:100B300065206C6576656C20696D706C6175736994
:100B4000626C652028302D34292E0A004261642011
:100B50005A2076616C75650A004E6F2062696C6977
:100B60006E65617220677269640A00446576696126
:100B700074696F6E0025533A2025730046696E69CB
:100B800073686564210A003A207A3A2000206F6673
:100B90002000476F696E6720746F3A2058004357F2
:100BA0000A00206469723A0020616E676C653A0041
:100BB0005374617274207261646975733A004D34C4
:100BC0003820506F696E740025533A2025642F2514
:100BD0006400506F736974696F6E696E6720746822
:100BE000652070726F62652E2E2E0A003F4C65677D
:100BF00073206F66206D6F76656D656E7420696D0C
:100C0000706C61757369626C652028302D313529EF
:100C10002E0A003F2028582C5929206F7574206F08
:100C20006620626F756E64732E0A0050726F626583
:100C3000206F7574206F6620626F756E6473003F5D
:100C400053616D706C652073697A65206E6F7420D6
:100C5000706C61757369626C652028342D3530299C
:100C60002E0A004D3438205A2D50726F6265205282
:100C700065706561746162696C697479205465732B
:100C8000740A003F2856296572626F7365206C658F
:100C900076656C20696D706C61757369626C652036
:100CA00028302D34292E0A005374616E64617264F9
:100CB00020446576696174696F6E3A200020526144
:100CC0006E67653A2000204D61783A2000204D691A
:100CD0006E3A2000205369676D613A20004D6561CE
:100CE0006E3A20005741524E494E4721204C6F77B3
:100CF000205A204A65726B206D6179206C656164B1
:100D000020746F20756E77616E74656420706175F4
:100D10007365732E0A0020204D61783A2000200070
:100D200020204D696E3A2000536F667420656E6412
:100D300073746F70733A20004D323453256C6454D1
:100D4000256C64004739322E3945257300473146FA
:100D500025640047315A25734636303000473158F4
:100D600025735925734633303030004D31303650BD
:100D70002569532569004D313039532569004D32BD
:100D80003030442573004739322E395A2573004DCF
:100D90003432305325635A25730047323852305865
:100DA000590047315A257346363030004739322EC4
:100DB000395A2573004739322E394530004D3130CC
:100DC00039532569004D313930532569004D34328E
:100DD00030205330205A300020496E76616C6964AF
:100DE000206578747275646572200047322F47332E
:100DF0002062616420706172616D65746572730A4E
:100E00000047322F47332062616420706172616D48
:100E100065746572730A00536C6565702E2E2E0022
:100E20005A2050726F62652050617374204265646D
:100E30000A005A2050726F6265205061737420421C
:100E40006564004D3131372050726F6265206661F4
:100E5000696C65642E205265776970696E672E0A29
:100E60004732380A47313220503020533132205433
:100E7000300070726F62655F7265776970650047F8
:100E80003239205265747279696E670050726F62F0
:100E9000696E67204661696C6564004D31313720A9
:100EA000426564206C6576656C696E672066616971
:100EB0006C65642E0A4730205A31300A4D33303089
:100EC0002050323520533838300A4D3330302050DE
:100ED00035302053300A4D333030205032352053D6
:100EE0003838300A4D333030205035302053300AF6
:100EF0004D3330302050323520533838300A4D339E
:100F00003030205035302053300A473420533100E0
:100F100070726F62655F6661696C6564004D313146
:100F20003720426564206C6576656C696E67206465
:100F30006F6E652E00205A3A200020593A20004258
:100F4000656420583A20004D65736820706F696EA3
:100F500074206F7574206F662072616E67650A0079
:100F60004D302053746F70004D312053746F7000FA
:100F7000436C69636B20746F20526573756D652EC9
:100F80002E2E004E6F204D6F76652E00456E64202C
:100F900066696C65206C6973740A00426567696EE6
:100FA0002066696C65206C6973740A004E6F206D51
:100FB000656469610A00526573756D696E672053D7
:100FC0004400286E6F2066696C6529004375727253
:100FD000656E742066696C653A2000534420707217
:100FE000696E74696E67206279746520004E6F7453
:100FF000205344207072696E74696E670A005072E3
:10100000696E742074696D653A20000A53746174C6
:10101000733A2046696C616D656E74207573656402
:101020003A20002C204C6F6E67657374206A6F62E3
:101030003A2000546F74616C2074696D653A200029
:1010400053746174733A20002C204661696C6564A6
:101050003A20002C2046696E69736865643A200066
:101060005072696E74733A200053746174733A203D
:10107000006F6B006F6666005A0355034E0347030B
:10108000390344454255473A004D3131332053002E
:1010900043522D3130205633204F46462E002F2FFD
:1010A000004D31343520533C696E6465783E206FC5
:1010B0007574206F662072616E67652028302D314F
:1010C000290A00205200416363656C65726174698E
:1010D0006F6E3A20500046523A0020466C6F773AC5
:1010E00020003A200020536572766F2000206F7533
:1010F00074206F662072616E67650A0053657276B0
:101100006F200020643A0020693A0020703A0049BC
:101110006E76616C69642065787472756465720AB4
:101120000020643A0020693A0020703A0064697334
:1011300000656E0043290A0061626C656420286DB9
:10114000696E2074656D702000436F6C6420657853
:10115000747275646573206172652000203B2048BD
:101160006F73742068616E646C696E6720006D6DCA
:1011700000203B2044697374616E636520004669FA
:101180006C616D656E742072756E6F757420004DA4
:1011900034323120696E636F7272656374207061DE
:1011A00072616D657465722075736167650A004DC3
:1011B00065736820706F696E74206F7574206F6638
:1011C0002072616E67650A00454550524F4D204FB1
:1011D0004B0A00506F7765722D6C6F7373207265C8
:1011E000636F7665727920004D383400446F6E6508
:1011F000207072696E74696E672066696C650A009A
:101200004D3737004D333100446966663A2020205F
:101210000046726F6D5374703A0053746570706558
:10122000723A00556E4C6576656C3A004C65766591
:101230006C65643A005261773A20202020000A4C05
:101240006F676963616C3A00436F756E7420453A4D
:10125000004361703A004D4541545041434B0043B7
:101260004F4F4C45525F54454D5045524154555295
:1012700045004348414D4245525F54454D5045520B
:1012800041545552450042414259535445505049EA
:101290004E470041524353004D4F54494F4E5F4D0E
:1012A0004F44455300544845524D414C5F50524FB6
:1012B00054454354494F4E004C4F4E475F46494CAE
:1012C000454E414D45004155544F5245504F5254A3
:1012D0005F53445F5354415455530053445F575236
:1012E00049544500524550454154005344434152EE
:1012F000440050524F4D50545F535550504F52542C
:1013000000484F53545F414354494F4E5F434F4D44
:101310004D414E445300454D455247454E43595F5C
:1013200050415253455200434153455F4C49474851
:10133000545F4252494748544E45535300544F4717
:10134000474C455F4C494748545300534F46545708
:101350004152455F504F574552004255494C445FFA
:1013600050455243454E54004C4556454C494E4716
:101370005F44415441005A5F50524F42450052551C
:101380004E4F5554004155544F4C4556454C005016
:1013900052494E545F4A4F420050524F47524553B4
:1013A00053004155544F5245504F52545F54454D90
:1013B00050004155544F5245504F52545F504F5377
:1013C00000564F4C554D45545249430045455052E7
:1013D0004F4D0042494E4152595F46494C455F547A
:1013E00052414E534645520053455249414C5F5875
:1013F0004F4E5F584F4646004649524D5741524561
:101400005F4E414D453A4D61726C696E20322E300F
:101410002E392E312D636F646576736B692D424CC6
:101420002D3235303030302028536570203139204E
:10143000323032312031383A33373A333029205381
:101440004F555243455F434F44455F55524C3A67B1
:1014500069746875622E636F6D2F4D61726C696E71
:101460004669726D776172652F4D61726C696E208D
:1014700050524F544F434F4C5F56455253494F4E75
:101480003A312E30204D414348494E455F54595022
:10149000453A43522D313020563320455854525549
:1014A0004445525F434F554E543A312055554944B7
:1014B0003A63656465326132662D343161322D34B0
:1014C0003734382D396231322D6335356336326623
:1014D00033363766660A00554E4C4F414420464924
:1014E0004C414D454E54004C4F41442046494C41DF
:1014F0004D454E540046494C414D454E54204348BD
:10150000414E47450050726F6265204F66667365B5
:1015100074205A0050726F6265204F66667365745E
:10152000205A00290A0020746F20003F5A206F754E
:1015300074206F662072616E6765202800290A009A
:1015400020746F20003F59206F7574206F662072E1
:10155000616E676520282D00290A0020746F200025
:101560003F58206F7574206F662072616E6765202A
:10157000282D0050726F6265204F66667365742077
:1015800058006F6B0A00526573656E643A20004321
:10159000616E6E6F74206F70656E20737562646922
:1015A0007220002569730025696D20256973002567
:1015B00069682025696D20256973002569642025E7
:1015C00069682025696D20256973002569792025C2
:1015D0006964202569682025696D202569730043A9
:1015E0006F6F6C696E672E2E2E0048656174696E90
:1015F000672E2E2E00452025530042656420436F40
:101600006F6C696E672E2E2E0042656420486561FE
:1016100074696E672E2E2E0023646566696E6520E0
:1016200044454641554C545F00626564004B64205C
:10163000004B6920004B70200050494420417574D4
:101640006F74756E652066696E69736865642120C4
:1016500050757420746865206C617374204B702C15
:10166000204B6920616E64204B6420636F6E73743D
:10167000616E74732066726F6D2062656C6F772087
:10168000696E746F20436F6E666967757261746905
:101690006F6E2E680A00504944204175746F74754E
:1016A0006E65206661696C6564212074696D656F83
:1016B00075740A00504944204175746F74756E65E5
:1016C000206661696C6564212054656D7065726186
:1016D0007475726520746F6F20686967680A0020EE
:1016E0004B643A2000204B693A2000204B703A208E
:1016F0000020436C617373696320504944200A00E1
:10170000204E6F206F76657273686F6F740A0020C9
:1017100054753A2000204B753A2000206D61783ACC
:101720002000206D696E3A200020643A200020627B
:101730006961733A2000504944204175746F747593
:101740006E652073746172740A00504944204175BB
:10175000746F74756E65206661696C6564212054D0
:10176000656D706572617475726520746F6F206845
:101770006967680A00504944204175746F74756E3A
:101780006500504944204175746F74756E6520661C
:1017900061696C65642120426164206865617465DB
:1017A000722069640A004572723A207574663820A6
:1017B000666F6E74206E6F7420696E697469616CF7
:1017C000697A65642E004572723A20757466382015
:1017D000666F6E74206E6F7420696E697469616CD7
:1017E000697A65642E004572723A207574663820F5
:1017F000666F6E74206E6F7420696E697469616CB7
:10180000697A65642E0042656400456E636C6F738F
:10181000757265002568753A253032687500253087
:101820003268753A2530326875002020202020204B
:10183000200020202020001FE02010201020101069
:101840002010202010201030300840048003001F9A
:10185000E03FF03FF03FF01FE01FE03FF03FF03F80
:10186000F00FC0078003003FFFF038007030FC30FD
:1018700020FC102078102030102C00D02E31D02FDA
:101880007BD02F7BD02E31D02C00D0203010207870
:101890001020FC1030FC303800703FFFF03FFFF0AC
:1018A0003800703186302387102787902F87D02FFC
:1018B00003D02030102078102078102030102F0313
:1018C000D02F87D02787902387103186303800703B
:1018D0003FFFF01FFFF81FFFF8041040020820022E
:1018E000082004104008208010410010410008200A
:1018F000800410400000001FFFF81FFFF8000000E8
:101900000000000000000000000000001DC08C0F5F
:10191000F82121920808212092380821CE9220082F
:1019200021209223F821209222001D21CC220000A8
:101930000000220001130022000114802200011087
:101940008023F800A300200800A08038080044800D
:1019500008080043000FF80000000000000000002D
:101960000000000000006E6F74696669636174694D
:101970006F6E200063616E63656C005072696E74F7
:101980002041626F72746564004469736D6973739A
:101990000055492041626F72746564004D323520F4
:1019A000500A4D323400526573756D6500554920FB
:1019B00050617573650050617573696E672E2E2EC8
:1019C00000726573756D65004D32340045455052A7
:1019D0004F4D2056657273696F6E204572726F723B
:1019E00000454550524F4D20496E64657820457240
:1019F000726F7200454550524F4D2043524320456F
:101A000072726F72003F0049676E6F7265005265B7
:101A100073657400496E697469616C697A65204503
:101A20004550524F4D0000FE0003FF8007C7C0071E
:101A300001E00000E00000F00000700400700E0003
:101A4000701F00703F80F00E00E00F01E007C7C07C
:101A500003FF8000FE0000FE0003FF8007C7C00FE9
:101A600001E00E00E03F80F01F00700E00700400E7
:101A7000700000700000F00000E00701E007C7C040
:101A800003FF8000FE000E000E000E000E000E0090
:101A90000E000E000E007FC03F801F000E000400ED
:101AA00004000E001F003F807FC00E000E000E00DD
:101AB0000E000E000E000E000E00FFFFFF7F80FFE5
:101AC000C0FFC0FFC07F807F80FFC0FFC0FFC03F5E
:101AD000001E000C0050726F6265205A204F66662F
:101AE0007365740052756E6F757420446973742049
:101AF0006D6D004C6F6164206D6D00556E6C6F6193
:101B000064206D6D0046696C2E204469612E00458D
:101B100020696E206D6D5E33004D333033205531BA
:101B2000204525692053256900504944204175749A
:101B30006F74756E65202A005049442D44202A0098
:101B40005049442D49202A005049442D50202A0054
:101B500020082046616374002008204D6178002031
:101B600008204D696E004F6666004F6E0041757427
:101B70006F74656D70005654726176204D696E0009
:101B8000566D696E00566D6178204500566D61781E
:101B9000205A00566D6178205900566D61782058A2
:101BA00000416D6178204500416D6178205A004107
:101BB0006D6178205900416D6178205800412D54A5
:101BC000726176656C00412D5265747261637400B8
:101BD000416363656C0056652D4A65726B00565A09
:101BE0002D4A65726B0056592D4A65726B00565826
:101BF0002D4A65726B0050726F6265205A204F66E5
:101C0000667365740050726F62652059204F666676
:101C10007365740050726F62652058204F6666735A
:101C2000657400452073746570732F6D6D005A20C4
:101C300053746570732F6D6D005920537465707304
:101C40002F6D6D00582053746570732F6D6D0041BA
:101C50006476616E6365642053657474696E67733E
:101C6000003F0043616E63656C00496E6974004912
:101C70006E697469616C697A6520454550524F4DB3
:101C80000046696C616D656E740054656D706572B7
:101C900061747572650053746570732F6D6D0050BB
:101CA000726F6265204F666673657473004A657271
:101CB0006B00416363656C65726174696F6E005699
:101CC000656C6F6369747900436F6E6669677572DE
:101CD0006174696F6E005A2056616C756500496EBB
:101CE000646578205900496E646578205800537403
:101CF0006F72652053657474696E6773004C6F6111
:101D0000642053657474696E67730050726F626506
:101D1000205A204F666673657400466164652048EA
:101D20006569676874004F6666004F6E00426564BF
:101D3000204C6576656C696E670045646974204D5A
:101D4000657368004C6576656C20426564004732B7
:101D5000394E00473239004175746F20486F6D6508
:101D6000004D6F74696F6E003F0043616E63656C78
:101D7000204F626A656374004E4F0059455300431B
:101D8000616E63656C204F626A656374203D004D2F
:101D900061696E0053746F77004465706C6F7900F1
:101DA00053572D4D6F64650053656C662D546573F4
:101DB0007400526573657400426564004E6F7A7AF0
:101DC0006C650046616E20537065656400436F6EFC
:101DD00066696775726174696F6E00526573746FBE
:101DE00072652044656661756C7473004C6F616444
:101DF0002053657474696E67730053746F72652045
:101E000053657474696E67730050726568656174B8
:101E1000202420436F6E6600506F776572204F75E7
:101E200074616765004F6666004F6E0052756E6F95
:101E300075742053656E736F7200424C546F7563F6
:101E4000680050726F6265205A204F666673657431
:101E500000416476616E6365642053657474696ED5
:101E60006773004D61696E004D3730322054256430
:101E7000004D36303020423020542564004D37303C
:101E800032203B2564004D37303120542564004D0D
:101E9000373032004D373031004D3630302042304F
:101EA000004D61696E00436F6E74696E7565004F19
:101EB0006666004F6E0052756E6F75742053656EC6
:101EC000736F72005075726765206D6F7265005296
:101ED0004553554D45204F5054494F4E533A0050AD
:101EE00052494E54205041555345440020204E6FD6
:101EF0007A7A6C653A20005061726B696E672E2E9B
:101F00002E0000005761697420666F720066696C6C
:101F1000616D656E74206368616E676500746F2023
:101F20007374617274005761697420666F72006621
:101F3000696C616D656E7420756E6C6F6164000014
:101F40004E6F7A7A6C652068656174696E670050BF
:101F50006C6561736520776169742E2E2E000050C8
:101F60007265737320627574746F6E00746F20688D
:101F7000656174206E6F7A7A6C650000496E7365D6
:101F800072742066696C616D656E7400616E6420A8
:101F9000707265737320627574746F6E00746F2055
:101FA000636F6E74696E7565005761697420666F42
:101FB000720066696C616D656E74206C6F6164009F
:101FC00000507265737320427574746F6E00746F85
:101FD00020726573756D65207072696E74000057AC
:101FE00061697420666F72207072696E7400746F1C
:101FF00020726573756D652E2E2E00005761697411
:1020000020666F720066696C616D656E7420707514
:1020100072676500003E2000256C642E25696D0006
:10202000457874727564656420546F74616C003E09
:1020300020004C6F6E67657374204A6F622054698C
:102040006D65003E2000546F74616C205072696EA3
:10205000742054696D6500436F6D706C65746564C0
:10206000003A20005072696E7420436F756E7400E0
:102070003A20003132300035004245443A20455084
:10208000434F53203130304B0052756E6177617988
:102090002057617463683A204F4E004D6178205498
:1020A000656D7000323735004D696E2054656D7076
:1020B00000350045313A204550434F5320313030F0
:1020C0004B005053550047656E657269630050724E
:1020D0006F746F636F6C00312E3000426175640065
:1020E00032353030303000437265616C6974793359
:1020F000442052414D50530042696C696E656172D3
:10210000204C6576656C696E6700457874727564FD
:102110006572730031006D61726C696E66772E6F47
:1021200072670043522D3130205633003230323145
:102130002D30372D323000322E302E392E312D6396
:102140006F646576736B692D424C2D3235303030BB
:1021500030004D61726C696E005072696E74657208
:1021600020537461747300546865726D6973746F81
:10217000727300426F61726420496E666F00507224
:10218000696E74657220496E666F004D61696E00FC
:10219000000C0F00FE07022503BB017FFE08FE08AE
:1021A000FE05080806000040F0C8888898781005E9
:1021B0000808060000C0F88888888888F8050505A2
:1021C0000600012030F830200508080600002070C5
:1021D000F820202020E00509090600FF2070A8A8AB
:1021E000B888887020070505070001D86C366CD8C0
:1021F0000509090600FFF8A88888888888A8F805D6
:102200000A0A0600FE205050505088A8A888700383
:10221000030306000340A040FFFFFFFFFFFFFFFF97
:10222000FFFFFFFFFFFFFFFFFFFFFFFFFFFF0000BC
:10223000000605FF010707060200808080808000FD
:1022400080030303060105A0A0A005060606000002
:1022500050F85050F8500509090600FF2070A8A05A
:102260007028A87020050707060000C8C810204085
:10227000989805070706000040A0A040A8906801B4
:1022800003030602058080800309090601FF204040
:10229000408080804040200309090601FF804040C3
:1022A00020202040408005070706000020A870205D
:1022B00070A8200505050600012020F82020020353
:1022C000030601FFC04080050101060003F8020279
:1022D00002060100C0C00507070600000810102014
:1022E000404080050707060000708898A8C88870DD
:1022F00003070706010040C040404040E0050707D3
:10230000060000708808102040F805070706000046
:10231000F8081030088870050707060000103050D4
:1023200090F81010050707060000F880F0080888EC
:1023300070050707060000304080F08888700507A8
:1023400007060000F80810102020200507070600E7
:1023500000708888708888700507070600007088FC
:102360008878081060020505060100C0C000C0C0E2
:102370000206060601FFC0C000C040800305050636
:1023800001012040804020050303060002F800F808
:10239000030505060101804020408005070706006F
:1023A00000708810202000200507070600007088B4
:1023B000B8A8B88070050707060000708888F888FC
:1023C0008888050707060000F04848704848F0056F
:1023D0000707060000708880808088700507070660
:1023E0000000F04848484848F0050707060000F894
:1023F0008080F08080F8050707060000F88080F0F4
:1024000080808005070706000070888080988870AB
:10241000050707060000888888F88888880307076A
:10242000060100E04040404040E00507070600008C
:10243000381010101090600507070600008890A063
:10244000C0A09088050707060000808080808080FB
:10245000F805070706000088D8A888888888050737
:10246000070600008888C8A898888805070706001E
:102470000070888888888870050707060000F08843
:1024800088F080808005070706000070888888A88B
:102490009068050707060000F08888F0A09088057E
:1024A0000707060000708880700888700507070617
:1024B0000000F820202020202005070706000088C3
:1024C00088888888887005070706000088888888BB
:1024D00050502005070706000088888888A8A85063
:1024E00005070706000088885020508888050707E0
:1024F00006000088885020202020050707060000DD
:10250000F80810204080F80309090601FFE08080E8
:102510008080808080E00507070600008040402022
:102520001010080309090601FFE0202020202020C8
:1025300020E0050303060005205088050101060080
:10254000FEF803030306010580402005050506008B
:102550000070087888780507070600008080F088FA
:102560008888F005050506000070808088700507E2
:1025700007060000080878888888780505050600A1
:10258000007088F08070050707060000304840E0C2
:102590004040400507070600FE708888887808706C
:1025A0000507070600008080F088888888030707F1
:1025B0000601004000C0404040E00409090601FE59
:1025C0001000301010101090600507070600008002
:1025D000808890E09088030707060100C0404040D3
:1025E0004040E0050505060000D0A8A8A8A80505FC
:1025F00005060000B0C8888888050505060000703B
:10260000888888700507070600FEF0888888F080B3
:10261000800507070600FE78888888780808050581
:1026200005060000B0C8808080050505060000781A
:10263000807008F00507070600002020F820202001
:1026400018050505060000888888986805050506B0
:10265000000088888850200505050600008888A8A5
:10266000A85005050506000088502050880507077A
:102670000600FE8888885020408005050506000079
:10268000F8102040F80309090601FF20404040806F
:10269000404040200109090602FF80808080808040
:1026A0008080800309090601FF80404040204040AF
:1026B000408005030306000248A890FF4D313030EA
:1026C000300053746F70205072696E7400526573DD
:1026D000756D65205072696E7400506F7765722059
:1026E0004F7574616765003F004261636B0053740E
:1026F0006F70004E6F204D65646961005072696EA5
:10270000742066726F6D204D656469610043686175
:102710006E6765204D65646961004D323100436824
:10272000616E67652046696C616D656E7400436F0C
:102730006E66696775726174696F6E0054656D705D
:1027400065726174757265004D6F74696F6E0052C9
:102750006573756D65205072696E740041626F75A6
:1027600074205072696E7465720043616E63656CAB
:10277000204F626A6563740054756E650053746F10
:1027800070205072696E74005061757365205072CC
:10279000696E7400496E666F2053637265656E00E2
:1027A0003F005374617274205072696E740043610B
:1027B0006E63656C005072696E740043616E6E6F7B
:1027C0007420656E746572207375626469723A2054
:1027D00000022E2E004D61696E002100486F746565
:1027E0006E6420746F6F20636F6C64004261636B72
:1027F0000050726F63656564004F6666004F6E003F
:10280000536F667420456E6473746F7073004D6F00
:1028100074696F6E0044697361626C6520537465FE
:102820007070657273004D3834004D34382050722A
:102830006F62652054657374004732384F0A4D3417
:10284000382050313000426564204C6576656C69F3
:102850006E6700486F6D65205A004732385A00484D
:102860006F6D652059004732385900486F6D6520FB
:10287000580047323858004175746F20486F6D65B5
:1028800000473238004D61696E00507265686561BD
:1028900074202420456E6400507265686561742060
:1028A00024204265640054656D70657261747572B0
:1028B0006500436F6F6C646F776E0050726568657A
:1028C000617420240046616E205370656564207E2B
:1028D00000426564004E6F7A7A6C65004D61696EE6
:1028E0000050726F6265205A204F666673657400EF
:1028F000466C6F770046616E205370656564207E7C
:1029000000426564004E6F7A7A6C650053706565AD
:1029100064004D61696E00486F6D696E67204661A5
:10292000696C6564006F70656E0054524947474595
:10293000524544003A200066696C616D656E740012
:102940007A5F70726F6265007A5F6D696E00795FA1
:102950006D696E00785F6D696E005265706F72749C
:10296000696E6720656E6473746F70207374617430
:1029700075730A0020746F6F206C6F6E6720657826
:1029800074727573696F6E2070726576656E7465AA
:10299000640A0020636F6C642065787472757369D3
:1029A0006F6E2070726576656E7465640A00486F9C
:1029B0006D65202573257325732046697273740035
:1029C0000000000000000000000000005761726E6F
:1029D000696E673A20486F6D696E672042756D7049
:1029E0002044697669736F72203C20310A0002022C
:1029F0000400009B4300009B430000C8430000A06C
:102A0000400000A040000000400000000100000065
:102A1000010000800055555500000040003333335D
:102A200000AAAA2A004992240000002000C7711CB5
:102A30000099991900D1451700555515003BB11360
:102A4000002449120011111100000010000F0F0F97
:102A500000E3380E0043790D00CCCC0C00C3300CE1
:102A600000E8A20B0064210B00AAAA0A00703D0A2C
:102A7000009DD80900427B090092240900DCD3089C
:102A800000888808001042080000000800F0C10714
:102A9000008787070075500700711C07003EEB0692
:102AA00000A1BC06006990060066660600703E063E
:102AB000006118060017F4050074D105005BB0052D
:102AC00000B2900500627205005555050078390581
:102AD00000B81E0500050505004EEC040087D4046F
:102AE00000A1BD040090A7040049920400C17D0428
:102AF00000EE690400C7560400444404005C32043C
:102B0000000821040041100400000004003FF0030D
:102B100000F8E0030026D20300C3C30300CCB503D2
:102B2000003AA803000A9B0300388E0300C081030B
:102B3000009F750300D0690300505E03001D53031E
:102B40000034480300913D0300333303001629038A
:102B500000381F030097150300300C030003030324
:102B6000000BFA020049F10200BAE802005CE00240
:102B7000002DD802002DD0020059C80200B0C002BA
:102B80000031B90200DAB10200AAAA0200A0A30231
:102B900000BC9C0200FA9502005C8F0200DF8802F4
:102BA0000082820200457C02002776020027700224
:102BB00000436A02007C640200D05E02003F5902BA
:102BC00000C8530200FFFDFCFAF8F6F4F2F0EEEC58
:102BD000EAE9E7E5E3E1E0DEDCDAD9D7D5D4D2D023
:102BE000CFCDCBCAC8C7C5C3C2C0BFBDBCBAB9B7B9
:102BF000B6B4B3B2B0AFADACAAA9A8A6A5A4A2A121
:102C0000A09E9D9C9A99989795949392908F8E8D63
:102C10008B8A8988878684838281807F7E7D7B7A88
:102C2000797877767574737271706F6E6D6C6B6A8C
:102C3000696867666564636261605F5E5D5C5B5A7C
:102C40005958585756555453525150504F4E4D4C59
:102C50004B4A4A4948474646454443424241403F21
:102C60003E3E3D3C3B3B3A393838373635353433D8
:102C700032323130302F2E2E2D2C2B2B2A29292881
:102C8000272726252524232322212120201F1E1E1D
:102C90001D1C1C1B1B1A19191818171616151514AC
:102CA000131312121111100F0F0E0E0D0D0C0C0B31
:102CB0000A0A0909080807070606050504040303AC
:102CC000020201000000009B4300009B430000C87B
:102CD0004300000000000000000000000053657485
:102CE00074696E67732053746F72656400290A00FB
:102CF0002062797465733B206372632000536574AE
:102D000074696E67732053746F726564202800487D
:102D1000617264636F6465642044656661756C7498
:102D20002053657474696E6773204C6F61646564C9
:102D30000A003B20003A0A0020204D3630332000A4
:102D400020440020204D34313220530046696C610C
:102D50006D656E742072756E6F75742073656E7319
:102D60006F723A002055004C0046696C616D656ECB
:102D700074206C6F61642F756E6C6F6164206C657C
:102D80006E677468733A0020204D38353120580042
:102D90005A2D50726F6265204F666673657400200D
:102DA000204D343133205300506F7765722D4C6FB6
:102DB0007373205265636F766572793A0020440020
:102DC00020490020204D3330342050002044002082
:102DD000490020204D3330312050005049442073A9
:102DE000657474696E67733A0020460020480020BD
:102DF000204D3134352053004D6174657269616C2A
:102E00002068656174757020706172616D657465AC
:102E100072733A00204A0020204732392057204957
:102E20000020204D3432302053004175746F204211
:102E30006564204C6576656C696E673A00205800C1
:102E400020530020204D323035204200416476610D
:102E50006E6365643A20423C6D696E5F7365676DB1
:102E6000656E745F74696D655F75733E20533C6D6C
:102E7000696E5F66656564726174653E20543C6D81
:102E8000696E5F74726176656C5F666565647261B8
:102E900074653E20583C6D61785F785F6A65726B3F
:102EA0003E20593C6D61785F795F6A65726B3E20A8
:102EB0005A3C6D61785F7A5F6A65726B3E20453C73
:102EC0006D61785F655F6A65726B3E00205400201B
:102ED000520020204D323034205000416363656C35
:102EE00065726174696F6E2028756E6974732F73D3
:102EF00032293A20503C7072696E745F6163636579
:102F00006C3E20523C726574726163745F616363EE
:102F1000656C3E20543C74726176656C5F616363DE
:102F2000656C3E0020204D3230312058004D6178D4
:102F3000696D756D20416363656C65726174696F5D
:102F40006E2028756E6974732F7332293A00202021
:102F50004D3230332058004D6178696D756D2066B3
:102F600065656472617465732028756E6974732F6A
:102F700073293A0053746570732070657220756E02
:102F800069743A0020440020204D32303020530034
:102F90002044697361626C65640A0046696C616D06
:102FA000656E742073657474696E67733A002020CF
:102FB0004D3134392043203B20556E6974732069AC
:102FC0006E2043656C736975730A0020286D6D2946
:102FD000002020473231202020203B20556E69748C
:102FE0007320696E206D6D00454550524F4D206431
:102FF00061746173697A65206572726F722E0A005E
:10300000290A002062797465733B20637263200093
:103010002073746F7265642073657474696E67736E
:1030200020726574726965766564202800202863C3
:10303000616C63756C6174656429210A0020213D0F
:103040002000454550524F4D20435243206D697337
:103050006D61746368202D202873746F7265642914
:1030600020002053697A653A2000496E6465783AF9
:10307000200000803B4400803B4400007041000081
:1030800096420000A0420000A0420000C843EC119C
:10309000BF43D0070000D007000064000000881381
:1030A0000000204D61726C696E3D563833290A006C
:1030B000454550524F4D2076657273696F6E206D95
:1030C00069736D617463682028454550524F4D3DCA
:1030D0000024F4D43050C38E20C2A24017828B70DB
:1030E00011127A910D816CD90AA861E108C758665E
:1030F00007615143061E4B5D05C145A7041A4111E6
:1031000004093D9803713931034036DB0265339180
:1031100002D4305402802E1D02632CEE01752AC5A4
:1031200001B028A001102781018F2564012B244BB9
:1031300001E0223401AC211F018D200D01801FFC14
:1031400000841EED00971DDF00B81CD200E61BC6F0
:1031500000201BBC00641AB200B219A8000A19A012
:10316000006A189900D117910040178B00B516849A
:103170000031167E00B31579003A157300C7146F3D
:103180000058146A00EE1366008813630025135E6E
:1031900000C7125B006C12570015125400C1115188
:1031A0000070114F0021114B00D61049008D1047BF
:1031B000004610440002104200C00F4000800F3E45
:1031C00000420F3C00060F3B00CB0E3800930E3739
:1031D000005C0E3500270E3400F30D3200C10D31B6
:1031E00000900D3000600D2E00320D2D00050D2CCD
:1031F00000D90C2B00AE0C2900850C29005C0C2793
:1032000000350C27000E0C2600E80B2400C40B240C
:1032100000A00B23007D0B23005A0B2100390B214A
:1032200000180B2000F80A1F00D90A1E00BB0A1E56
:10323000009D0A1D00800A1D00630A1C00470A1B2E
:10324000002C0A1B00110A1A00F7091A00DD0919DF
:1032500000C4091900AB091900920917007B09186D
:1032600000630917004C09160036091600200916DC
:10327000000A091500F5081500E0081400CC081430
:1032800000B8081400A4081400900813007D081268
:10329000006B081300580812004608120034081189
:1032A00000230811001208110001081100F0071096
:1032B00000E0071000D0071000C0071000B0070F93
:1032C00000A107100091070E0083070F0074070F7D
:1032D0000065070E0057070E0049070E003B070D5B
:1032E000002E070E0020070D0013070D0006070D26
:1032F00000F9060C00ED060D00E0060C00D4060CEB
:1033000000C8060C00BC060C00B0060C00A4060B9E
:103310000099060C008D060B0082060B0077060B49
:10332000006C060B0061060A0057060B004C060AEB
:103330000042060A0038060A002E060A0024060A81
:10334000001A060A001006090007060A00FD050912
:1033500000F4050900EB050900E2050900D905099B
:1033600000D0050900C7050900BE050900B505081C
:1033700000AD050800A50509009C05080094050896
:10338000008C050800840508007C05080074050809
:10339000006C050700650508005D05070056050877
:1033A000004E0507004705070040050800380507DF
:1033B00000310507002A050700230507001C050644
:1033C00000160507000F050700080506000205079F
:1033D00000FB040600F5040700EE040600E80406FE
:1033E00000E2040700DB040600D5040600CF040653
:1033F00000C9040600C3040600BD040600B70406A5
:1034000000B1040500AC040600A6040600A00405F3
:10341000009B04060095040500900406008A04053C
:103420000085040500800406007A04050075040583
:1034300000700405006B04050066040500610405C6
:10344000005C04050057040500520405004D040506
:103450000048040500430405003E0404003A040546
:103460000035040500300404002C04050027040482
:1034700000230405001E0404001A040400160405B9
:1034800000110404000D04040009040500040404F0
:103490000000040400FC030400F8030400F4030427
:1034A00000F0030400EC030400E8030400E4030458
:1034B00000E0030400DC030400D8030400D4030488
:1034C00000D0030400CC030400C8030300C50303B9
:1034D0000024F404D9201BC40C5C0E9804C4095FBA
:1034E0000265077101F405F900FB04B30048048785
:1034F00000C10369005803550003034500BE023AAA
:10350000008402310053022A00290225000402200F
:1035100000E4011C00C8011900AF01170098011454
:103520000084011300710110006101100051010EAF
:103530000043010D0036010B002B010B0020010B95
:1035400000150109000C01090003010800FB000837
:1035500000F3000800EB000700E4000600DE0006B0
:1035600000D8000600D2000600CC000500C7000508
:1035700000C2000500BD000400B9000400B500044D
:1035800000B1000400AD000400A9000400A5000380
:1035900000A20003009F0004009B000300980003AA
:1035A000009500020093000300900003008D0002CC
:1035B000008B0003008800020086000200840003E4
:1035C00000810002007F0002007D0002007B0002FB
:1035D000007900020077000100760002007400020A
:1035E0000072000100710002006F0002006D000116
:1035F000006C0002006A000100690002006700011F
:103600000066000100650001006400020062000124
:103610000061000100600001005F0002005D000128
:10362000005C0001005B0001005A0001005900012C
:10363000005800010057000100560001005500012C
:10364000005400010053000000530001005200012B
:103650000051000100500001004F0001004E000029
:10366000004E0001004D0001004C0001004B000025
:10367000004B0001004A0001004900010048000021
:10368000004800010047000100460000004600011C
:103690000045000000450001004400010043000017
:1036A0000043000100420000004200010041000010
:1036B0000041000100400001003F0000003F000108
:1036C000003E0000003E0001003D0000003D000102
:1036D000003C0000003C0000003C0001003B0000FA
:1036E000003B0001003A0000003A000100390000F0
:1036F00000390001003800000038000000380001E7
:1037000000370000003700010036000000360000DE
:1037100000360001003500000035000000350001D2
:1037200000340000003400000034000100330000C9
:1037300000330000003300010032000000320000BE
:1037400000320001003100000031000000310001B2
:10375000003000000030000000300001002F0000A9
:10376000002F0000002F0000002F0001002E00009D
:10377000002E0000002E0001002D0000002D000092
:10378000002D0000002D0001002C0000002C000086
:10379000002C0000002C0001002B0000002B00007A
:1037A000002B0000002B0001002A0000002A00006E
:1037B000002A0000002A0001002900000029000062
:1037C0000029000000290000002900010028000055
:1037D0000028000000280000002800000028000148
:1037E000002700000027000000270000002700003D
:1037F000002700010026000000260000002600002F
:103800000026000000260001002500000025000021
:103810000025000000250000002500000025000113
:103820000024000000240000002400000024000008
:1038300000240001002300000023000000230000FA
:1038400000230000002300000023000000230001EB
:1038500000220000002200000022000000220000E0
:1038600000220000002200010021000000210000D1
:1038700000210000002100000021000000210000C4
:1038800000210001002000000020000000200000B6
:1038900000200000002000000020000000200000A8
:1038A00000200001001F0000001F0000001F00009A
:1038B000001F0000001F0000001F0000001F00018B
:1038C000001E0000001E0000001E0000001E000080
:1038D00000393000003325000087190000B00F00C8
:1038E00000DB080000BD040000740200003F01007E
:1038F0000020436F756E7420583A0042656400459D
:103900003100626564002C2073797374656D2073D7
:10391000746F7070656421204865617465725F49D9
:10392000443A200048656174696E67204661696C9D
:1039300065640048656174696E67206661696C65DD
:1039400064004D3131322053687574646F776E00B6
:103950004572723A204D415854454D50004D4158E2
:1039600054454D50207472696767657265640045FF
:1039700072723A204D494E54454D50004D494E54B7
:10398000454D5020747269676765726564005448DC
:1039900045524D414C2052554E41574159005468B3
:1039A00065726D616C2052756E6177617900202FB0
:1039B000002042403A0020403A0020573A00205769
:1039C0003A00496E76616C6964206578747275643A
:1039D00065720A007C3C3E5E2B3D3F2F5B5D3B2CBD
:1039E0002A225C0043616E6E6F74206F70656E20DA
:1039F00073756264697220005045544700504C4111
:103A000000534420496E6974204661696C00534438
:103A10002063617264206F6B0A006F70656E526F75
:103A20006F74206661696C65640A00766F6C756DF1
:103A3000652E696E6974206661696C65640A004E62
:103A40006F20534420636172640A000A4D323400CF
:103A50004D3233202573002E0A006F70656E20668C
:103A600061696C65642C2046696C653A2000466982
:103A70006C652073656C65637465640A0020536926
:103A80007A653A200046696C65206F70656E6564E2
:103A90003A2000454E4420535542524F5554494E0A
:103AA000450A002220706F73002220706172656EDB
:103AB000743A2200535542524F5554494E452043C3
:103AC000414C4C207461726765743A2200537562F0
:103AD00063616C6C204F766572666C6F7700457819
:103AE000636565646564206D617820535542524F6B
:103AF0005554494E452064657074683A002E0A009A
:103B000044656C6574696F6E206661696C65642CD0
:103B10002046696C653A200046696C652064656CD6
:103B2000657465643A002F6175746F25632E6700B4
:103B300057726974696E6720746F2066696C653AA4
:103B40002000667265736800646F696E67002066A6
:103B5000696C653A20004E6F77200000000000007D
:103B60000000600000000000FC00000FF0000000FA
:103B70000007E00000000001861FC0187000000070
:103B80000000603C0C000001830C6010300000005D
:103B90000000603C0C000001830C3030300000005D
:103BA000000060000C000000030C18300000000052
:103BB000000060003F0F3C00030C0C6001DF0FE0D1
:103BC000FE00601C1C061800060C0C6000F3183187
:103BD0008300600C0C0318001E0C0C6000E03039F0
:103BE0008300600C0C033000030C0C6000C0303804
:103BF0000F00600C0C033000018C0C6000C03FF81B
:103C0000FB00600C0C033000018C0C6030C03001F4
:103C10008300600C0C01F001818C0C6030C030011D
:103C20008300600C0C00E001818C183030C018312A
:103C30008300600C0C40E001838C301860C00C6184
:103C400087C0E01C0CC06000C30C600FC3F007C04D
:103C5000FFC7FC7F0781C0007E1FC000000000007E
:103C6000000000000007000000000000000000004D
:103C700000000000000700000000006D61726C6928
:103C80006E66772E6F726700322E302E392E312DF0
:103C9000636F646576736B692D424C2D323530301D
:103CA0003030001FFFFFFFFFFFFF6000000000013A
:103CB000FF400000000000FF8000000000007F8344
:103CC000CF00000C303F87FF80000C301F867980CA
:103CD000000C000F8C30C7838C30E78C30CFC7CC02
:103CE00031F38C30DCECEC33B98C30D86C6C33199C
:103CF0008C30D06C0C33198C30D86C0C33198C3060
:103D0000DC6C0E3B198C30CF7C079F198C30C77C44
:103D1000038F194000000000000260000000000056
:103D2000061FFFFFFFFFFFF870012C019001270124
:103D3000B0012201C0011D01F001180110021301A0
:103D400030020E016002090190020401C002FF006E
:103D50000003FA004003F5008003F000D003EB00FD
:103D60002004E6007004E100E004DC004005D70018
:103D7000C005D2004006CD00D006C8008007C300B1
:103D80003008BE00F008B900C009B400B00AAF00A6
:103D9000B00BAA00D00CA500000EA000500F9B0095
:103DA000C01096005012910000148C00C0158700BE
:103DB000B0178200B0197D00D01B7800001E730080
:103DC00040206E0090226900F024640040275F00CC
:103DD00090295A00E02B5500102E500020304B0047
:103DE00010324600E033410090353C001037370078
:103DF00070383200A0392D00B03A2800A03B2300D3
:103E0000603C1E00103D1900903D1400103E0F0054
:103E1000703E0A00C03E0500003F0000403FFBFF2F
:103E2000803FF6FFC03FF1FF2020506C616E6E6551
:103E30007242756666657242797465733A20002035
:103E400046726565204D656D6F72793A2000436F4B
:103E50006D70696C65643A20536570203139203289
:103E60003032310A00204C617374205570646174E3
:103E700065643A20323032312D30372D3230207C9B
:103E800020417574686F723A20636F646576736B56
:103E90006920666F726B206F662046695A692062DE
:103EA00061736564206F6E204161726F6E204A7588
:103EB00073742C20435231302D56330A00322E3089
:103EC0002E392E312D636F646576736B692D424CEC
:103ED0002D3235303030300A004D61726C696E0021
:103EE00020536F6674776172652052657365740A3A
:103EF00000205761746368646F672052657365744E
:103F00000A002042726F776E206F757420526573BD
:103F100065740A002045787465726E616C20526584
:103F20007365740A00506F77657255700A00737478
:103F30006172740A004732385859004D31303031BF
:103F4000006572726F722077726974696E6720748F
:103F50006F2066696C650A00446F6E652073617638
:103F6000696E672066696C652E0A004D323900451E
:103F70006E6473746F70730025532025632025636E
:103F80002025632025630020503A00205A3A002063
:103F9000593A0020583A00656E6473746F7073204C
:103FA0006869743A200000000A0B02090C0D0E0823
:103FB00007030401000000000000000000000000F2
:103FC00000000000000000000000000000000000F1
:103FD00000001211100000000000000000000000AE
:103FE000000000000000000000000000004D6F769F
:103FF000652025736D6D004D6F766520302E316D17
:104000006D004D6F766520316D6D004D6F766520CA
:1040100031306D6D004D6F766520417869730045D4
:1040200078747275646572004D6F7665205A004D24
:104030006F76652059004D6F7665205800FD39F880
:10404000394368616E67652046696C616D656E74A1
:1040500000556E6C6F61642046696C616D656E74AD
:10406000004C6F61642046696C616D656E74005030
:1040700072656865617420437573746F6D0050726A
:1040800065686561742024004261636B0050726949
:104090006E742066726F6D204D6564696100FFFF6C
:1040A000FF50726F62696E67204661696C656400DB
:1040B000205A3A200020593A200042656420583A9C
:1040C000200073686F7700627574746F6E006265AC
:1040D00067696E0044697361626C6552756E6F75D5
:1040E000740050757267654D6F726500506175732D
:1040F000656400436F6E74696E7565004C6F616432
:104100002046696C616D656E74205400496E73655C
:1041100072742066696C616D656E7420616E6420D6
:1041200073656E64204D3130380A00220A00556EE6
:104130006B6E6F776E20636F6D6D616E643A2022D7
:10414000002042002050006F6B0043522D31302080
:1041500056332052656164792E005072696E74691D
:104160006E672E2E2E005072696E7420506175732A
:10417000656400204500205A00205900204D393246
:1041800020580020453A00205A3A0020593A005859
:104190003A0020746F6F206C6F6E672065787472C0
:1041A0007573696F6E2070726576656E7465640AEA
:1041B0000020636F6C6420657874727573696F6E2C
:1041C0002070726576656E7465640A006E6F74693E
:1041D0006669636174696F6E20000000220025002B
:1041E00028002B002E0031003400020100000501E0
:1041F00008010B0100002100240027002A002D00E7
:104200003000330001010000040107010A01050527
:104210000505070508080808020202020A0A08083C
:10422000040404040101010101010101030303036A
:1042300003030303040707070C0C0C0C0C0C0C0CF9
:104240000202020206060606060606060B0B0B0B0A
:104250000B0B0B0B0102102020080810204010202F
:10426000408002010201080402010102040810203A
:104270004080804020100804020180040201804038
:1042800020100804020108040201010204081020A1
:1042900040800102040810204080D600D400112480
:1042A0001FBECFEFD1E2DEBFCDBF00E00CBF15E0F7
:1042B000A0E0B2E0E2E5F1EE02E00BBF02C0079041
:1042C0000D92A630B107D9F729E1A6E0B5E001C00B
:1042D0001D92A035B207E1F711E2CEE4D1E200E091
:1042E00006C021970109802FFE010F94446DCD3443
:1042F000D10780E00807A9F70F94835B0D949870AD
:104300000C94000090E080E00895282F909194058F
:10431000833021F495FD0FC094FD0FC0892F90E0EC
:10432000B0E0A0E004C0B695A795979587952A952B
:10433000D2F78170089581E0089580E00895CF92CA
:10434000DF92EF92FF92CF93DF93EC01CC80DD8080
:10435000EE80FF8027E137EB41ED58EBC701B60156
:104360000F94746F87FD23C023E030E04BE953E4E2
:10437000C701B6010F947D661816CCF0C880D980AD
:10438000EA80FB8027E137EB41ED58EBC701B6012E
:104390000F94746F87FD0BC0C1E023E030E04BE960
:1043A00053E4C701B6010F947D6618160CF4C0E003
:1043B0008C2FDF91CF91FF90EF90DF90CF900895F9
:1043C000282F809337028032D8F4809191062817E5
:1043D00024F081E0820F8093910680918D06909168
:1043E0008E06A0918F06B091900604C0B695A79551
:1043F000979587952A95D2F7817080933D120895FD
:1044000010923D1208952F923F924F925F926F92B9
:104410007F928F929F92AF92BF92CF92DF92EF9254
:10442000FF920F931F93CF93DF93CDB7DEB72E97F5
:104430000FB6F894DEBF0FBECDBFE82ED62E042FE8
:10444000122F282F30E03C872B87462F50E05A87C9
:10445000498765E0F62EF29EC001F39E900D11246F
:104460009E878D87FA01E80FF91FEE0FFF1FEE0FF1
:10447000FF1FE759F74F60817181828193819B0112
:10448000AC010F94FC6F882309F434C1E00E612F56
:104490006D0DFE9CF0011124A985BA85AE0FBF1FDA
:1044A000AA0FBB1FAA0FBB1FA759B74FAC901196FD
:1044B000BC9011971296CC9012971396DC90E00E58
:1044C000FE9CA0011124A985BA85A40FB51FAA0FCF
:1044D000BB1FAA0FBB1FA759B74FEC901196FC90BA
:1044E000119712960C91129713969C90862F90E03C
:1044F000AD85BE85A80FB91FAA0FBB1FAA0FBB1F92
:10450000A759B74F8C9011967C90119712966C908A
:10451000129713965C90610F70E0AD85BE85A60F73
:10452000B71FAA0FBB1FAA0FBB1FA759B74F4C90AD
:1045300011963C90119712961C91129713962C90FD
:10454000E80FF91FEE0FFF1FEE0FFF1FE759F74FA0
:10455000B081B98321812A8332813B8383818C831B
:10456000FA01E60FF71FEE0FFF1FEE0FFF1FE759CF
:10457000F74F90819D83A181AE83B281BF83238158
:1045800028879701402F592DB701802F992D0F941F
:10459000FC6F882321F0E12CF12C00E0912C950197
:1045A000A601B501C6010F94FC6F882319F05701CD
:1045B000C02ED92C242D332D412F522D642D732D37
:1045C000812F922D0F94FC6F882321F0412C312CE8
:1045D00010E0212C282D372D462D552D682D772DB7
:1045E000862D952D0F94FC6F882321F0842C732C3D
:1045F000612E522C2D813E814F8158856D817E81A7
:104600008F8198850F94FC6F882321F01D821E8274
:104610001F82188629813A814B815C8169817A8168
:104620008B819C810F94FC6F882341F03D813983FD
:104630004E814A835F815B8388858C8385E0EB852F
:10464000FC858E9FD0018F9FB00D112429853A855E
:10465000A20FB31FAA0FBB1FAA0FBB1FA759B74FAB
:10466000BA87A9879501A601B501C6010F944D6DC2
:104670009701402F592D0F944C6D6B017C01282D13
:10468000372D462D552D682D772D862D952D0F9480
:104690004D6D242D332D412F522D0F944C6D9B01C8
:1046A000AC01C701B6010F944D6D6B017C012981EE
:1046B0003A814B815C8169817A818B819C810F94E5
:1046C0004D6D2D813E814F8158850F944C6D9B011E
:1046D000AC01C701B6010F944D6D20E030E040E41D
:1046E00050E40F94296EA985BA856D937D938D93BF
:1046F0009C9313972E960FB6F894DEBF0FBECDBFD6
:10470000DF91CF911F910F91FF90EF90DF90CF90AD
:10471000BF90AF909F908F907F906F905F904F90E1
:104720003F902F9008951092D60B80916102909146
:104730006202A0916302B09164028093E2089093B8
:10474000E308A093E408B093E50808959091D50B91
:104750001092D50B9230B1F09430B9F09130D9F479
:10476000882319F0813021F008959093D70B089594
:1047700082E08093D70B8091D60B882361F0109252
:104780006502D1CF1092D80B089588EC99E19093EF
:104790001E0B80931D0B0895129A0895269A2E9A47
:1047A000089563E00D947457CF93DF93C091690B24
:1047B000D0916A0B209729F16091650B7091660B7F
:1047C0008091670B9091680B0F94916E6E5F7F4F95
:1047D00024976C177D07ACF4709394096093930948
:1047E0000F94B94C605E70448D4F9F4F6093950954
:1047F000709396098093970990939809DF91CF91D0
:1048000008951092950910929609109297091092A6
:104810009809F4CF0F931F93CF93DF9300D01F928B
:10482000CDB7DEB79C0103EC1BE090E1EBEEFBE0C3
:10483000D80101900D929A95E1F7F901208131811B
:1048400042815381F80160857185828593850F943B
:104850004D6DF801608771878287938780E090E0D3
:10486000A0EAB0E489839A83AB83BC83CE0101962E
:104870000F9439090F900F900F900F90DF91CF9107
:104880001F910F9108952F923F924F925F926F92D6
:104890007F928F929F92AF92BF92CF92DF92EF92D0
:1048A000FF921F93CF93DF93CDB7DEB72C970FB650
:1048B000F894DEBF0FBECDBF7A011901DC012D9146
:1048C0003D914D915C912D833E834F835887FB0131
:1048D00040805180628073808090EB0B9090EC0B55
:1048E000A090ED0BB090EE0BA50194016D817E813F
:1048F0008F8198850F947D6681110EC011E0A30110
:1049000092016091EF0B7091F00B8091F10B9091FF
:10491000F20B0F947D66811110E0D1012D913D9134
:104920004D915C9129873A874B875C87F701C0805E
:10493000D180E280F38020910B0230910C024091F3
:104940000D0250910E02C701B6010F947D668823B7
:1049500009F44EC0C0920B02D0920C02E0920D02FC
:10496000F0920E028091F70B9091F80BA091F90B49
:10497000B091FA0B4091EF0B5091F00B6091F10B5D
:104980007091F20B8092C30B9092C40BA092C50B56
:10499000B092C60B4093C70B5093C80B6093C90BE2
:1049A0007093CA0BC092CB0BD092CC0BE092CD0B84
:1049B000F092CE0B8093CF0B9093D00BA093D10BA2
:1049C000B093D20B20E030E040E05FE360916B12E7
:1049D00070916C1280916D1290916E120F94E2663C
:1049E00069837A838B839C83CE0101960F94390966
:1049F0002D813E814F8158852093C30B3093C40B8A
:104A00004093C50B5093C60B4092C70B5092C80BF6
:104A10006092C90B7092CA0BD1012D913D914D91BD
:104A20005C916091CF0B7091D00B8091D10B9091E4
:104A3000D20B0F944D6D6093CF0B7093D00B80937E
:104A4000D10B9093D20B11112FC020E030E0A901BF
:104A500069857A858B859C850F947D66811133C02D
:104A600060E070E088EC92E469837A838B839C83B6
:104A7000CE0101960F9439092C960FB6F894DEBF3B
:104A80000FBECDBFDF91CF911F91FF90EF90DF90D0
:104A9000CF90BF90AF909F908F907F906F905F90DE
:104AA0004F903F902F9008952AEF3EE74AE25FE350
:104AB00060916F12709170128091711290917212C8
:104AC0000F94E266D1CF60E070E080EA91E4CCCF51
:104AD000CF93DF9300D01F92CDB7DEB780E090E098
:104AE000A0EAB0E489839A83AB83BC8361E0CE0102
:104AF00001960F9431010F900F900F900F90DF915E
:104B0000CF91089580918D0590918E05009731F099
:104B10004AE050E070E060E00D949E6460E070E078
:104B2000CB0108958091FF0B82FF0BC063E68EE1FD
:104B300098E00E94898D0F94C54C0E94C38E81E03D
:104B4000089580E0089580918D0590918E050097DD
:104B500031F04AE050E070E060E00D94716360E095
:104B600070E0CB010895CF92DF92EF92FF92CF9346
:104B70006B017C01C42F8091E6088F5F09F4ACC003
:104B80008093E6088091E60880937E0980E1EBEE51
:104B9000FBE0A7EEB8E001900D928A95E1F720E0E6
:104BA00030E040E752E460913F0270914002809112
:104BB0004102909142020F94E2660F94966E7093B8
:104BC000F8086093F708C092F908D092FA08E092CA
:104BD000FB08F092FC0880917D09C0FB80F9909160
:104BE000670890FB84F980937D09992381F0809177
:104BF000630890916408A0916508B091660880935D
:104C0000FD089093FE08A093FF08B09300098091DF
:104C1000930B9091940B90930209809301098091DA
:104C2000690B90916A0B909304098093030980911A
:104C3000290C90912A0C9093060980930509809184
:104C40007D0990915A0890FB83F980937D098091AA
:104C5000560890915708A0915808B0915908809330
:104C6000070990930809A0930909B0930A090F94C2
:104C7000720E609378097093790980937A09909302
:104C80007B098091940580937C0990913E128091DC
:104C90007D0993FB81F990914D0890FB82F98093F7
:104CA0007D0980E00F94CF5040E050E0BA0189E2E6
:104CB00097E10E94F9DC49E950E066EE78E089E28C
:104CC00097E10E941EDF89E297E1CF91FF90EF907C
:104CD000DF90CF900C9498E081E052CFCF92DF929A
:104CE000EF92FF920F931F93CF93DF936B017A01A3
:104CF000EC01C45EDA4F28813CE0389F8001399F87
:104D0000100D112427FF24C0FB011182108288811D
:104D10008F5F888388819801280F311D87FD3A9520
:104D2000C90120919716F6012817190629F024F0D9
:104D300088818C300CF43CC0808191810496803451
:104D40009C4908F475C0F60180819181049672C077
:104D500088819801280F311D87FD3A95C90120915E
:104D600097162817190699F294F28881A801480F1E
:104D7000511D87FD5A95FA01EE0FFF1FE40FF51F35
:104D8000E15BF94E808187FFC2CF8881F801E80F8F
:104D9000F11D87FDFA95CF01EE0FFF1FE80FF91FF8
:104DA000E15BF94E808160E08F770F94254BAFCFA8
:104DB000808191812881A801420F511D27FD5A95BC
:104DC0009A01FA01EE0FFF1FE20FF31FE15BF94EAC
:104DD00021813281820F931FF70191838083888123
:104DE0009801280F311D87FD3A95F901EE0FFF1F3D
:104DF000E20FF31FE15BF94E808187FF20C08881BD
:104E0000080F111D87FD1A95F801EE0FFF1FE00F27
:104E1000F11FE15BF94E808161E08F77DF91CF91E7
:104E20001F910F91FF90EF90DF90CF900D94254B45
:104E300080E49CE9F701918380838FEF8883DF9181
:104E4000CF911F910F91FF90EF90DF90CF90089539
:104E5000FC01659175918591949108958091D40B91
:104E6000882319F080E00F94580C80E008954F9249
:104E70005F926F927F928F929F92AF92BF92CF92EA
:104E8000DF92EF92FF92CF93DF9300D000D01F927A
:104E90001F92CDB7DEB75C01DB01CD90DD90ED90C8
:104EA000FC90E091A716F091A816FE83ED83848113
:104EB0009581A681B78189839A83AB83BC839C014A
:104EC000AD01C701B6010F944C6D2B013C01F501FA
:104ED00080809180A280B380AD81BE818D919D91B3
:104EE0000D90BC91A02D8D839E83AF83B88727E161
:104EF00037EB41ED58EBC301B2010F94746F87FD9E
:104F0000D1C023E030E04BE953E4C301B2010F9478
:104F10007D6618160CF4C6C02D813E814F815885E0
:104F2000C501B4010F944C6D2B013C0127E137EB17
:104F300041ED58EB0F94746F87FDB4C023E030E06F
:104F40004BE953E4C301B2010F947D6618160CF4CB
:104F5000A9C020E030E0A9016D817E818F81988514
:104F60000F944D6D2B013C0120E030E040E251E414
:104F70000F947D6687FF06C0412C512C30E2632ED2
:104F800031E4732E27E137EB41ED58E3C301B20161
:104F90000F944C6D9B01AC01C501B4010F94746F6B
:104FA00087FD80C020E030E04BE953E46D817E81D5
:104FB0008F8198850F944D6D2B013C0120E030E0EE
:104FC00046E953E40F94746F181634F4412C512CB5
:104FD00026E9622E23E4722E27E137EB41ED58E3F8
:104FE000C301B2010F944D6D9B01AC01C501B40129
:104FF0000F947D6618160CF455C020E030E0A9012E
:1050000069817A818B819C810F944D6D4B015C018C
:1050100020E030E040E251E40F947D6687FF06C057
:10502000812C912C90E2A92E91E4B92E27E137EB47
:1050300041ED58E3C501B4010F944C6D9B01AC01E7
:10504000C701B6010F94746F87FD2CC020E030E0DB
:105050004BE953E469817A818B819C810F944D6D7A
:105060004B015C0120E030E046E953E40F94746F9B
:10507000181634F4812C912C86E9A82E83E4B82EDE
:1050800027E137EB41ED58E3C501B4010F944D6DB5
:105090009B01AC01B1E0B983C701B6010F947D66F5
:1050A00018160CF41982898128960FB6F894DEBF81
:1050B0000FBECDBFDF91CF91FF90EF90DF90CF90EB
:1050C000BF90AF909F908F907F906F905F904F9028
:1050D00008958F929F92AF92BF92CF92DF92EF92FC
:1050E000FF92CF93DF93EC01809056089090570881
:1050F000A0905808B090590820E030E0A901C501FF
:10510000B4010F947D66882309F452C0C880D98009
:10511000EA80FB80A7019601C501B4010F947D666A
:1051200018160CF04AC02091890530918A054091EB
:105130008B0550918C05C701B6010F947D668823BD
:1051400021F1C0928905D0928A05E0928B05F092F8
:105150008C052091850530918605409187055091F9
:105160008805C701B6010F94E2669B01AC0160E0BF
:1051700070E080E89FE30F944C6D60930F02709392
:105180001002809311029093120260910F027091AD
:1051900010028091110290911202DF91CF91FF9045
:1051A000EF90DF90CF90BF90AF909F908F90089539
:1051B00060E070E080E89FE3F0CF60E070E0CB015A
:1051C000ECCF9B01AC01485F5F4FBC016C5F7F4F30
:1051D0005ACB0F931F93CF93DF9300D000D01F9231
:1051E0001F92CDB7DEB7FC018B0183A5811111C0E1
:1051F00081E083A784819581A681B781B058898396
:105200009A83AB83BC83BE016F5F7F4F83EC9BE0CF
:10521000D8DF1D821E821F82188620E030E040E029
:105220005FE36091F30B7091F40B8091F50B90911B
:10523000F60B0F944D6D69837A838B839C839E015B
:105240002B5F3F4FAE014F5F5F4F6FEE7BE08BEE0A
:105250009BE019DB1D821E821F82188620E030E051
:1052600040E05FE3F80160857185828593850F9446
:105270004D6D69837A838B839C83B8016C5F7F4F0C
:105280009E012B5F3F4FAE014F5F5F4FC801FBDABE
:1052900028960FB6F894DEBF0FBECDBFDF91CF9139
:1052A0001F910F9108952F923F924F925F926F92AC
:1052B0007F928F929F92AF92BF92CF92DF92EF92A6
:1052C000FF920F931F93CF93DF93CDB7DEB7A297D3
:1052D0000FB6F894DEBF0FBECDBF8C011B015E83FD
:1052E0004D834090EB0B5090EC0B6090ED0B709069
:1052F000EE0B8090EF0B9090F00BA090F10BB09024
:10530000F20BDB018D919D910D90BC91A02D8F87AB
:10531000988BA98BBA8B9C01AD01C301B2010F948C
:105320004C6D6B017C01D10114968D919D910D9076
:10533000BC91A02D8B8B9C8BAD8BBE8B9C01AD014A
:10534000C501B4010F944C6D6F8B788F898F9A8F44
:10535000AD81BE818D919D910D90BC91A02D8F83CB
:105360009887A987BA879C01AD01C301B2010F9448
:105370004C6D6B8F7C8F8D8F9E8FAD81BE8114960F
:105380008D919D910D90BC91A02D8B879C87AD87B1
:10539000BE879C01AD01C501B4010F944C6D6F8FA8
:1053A00078A389A39AA3A7019601C701B6010F9418
:1053B000E2666B017C012F89388D498D5A8DCA01B7
:1053C000B9010F94E2669B01AC01C701B6010F94CD
:1053D0004D6D4B015C012F85388949895A896F8150
:1053E000788589859A850F944C6D2B013C012B891A
:1053F0003C894D895E896B857C858D859E850F9462
:105400004C6D6B017C01A3019201C301B2010F94A9
:10541000E2662B013C01A7019601C701B6010F947A
:10542000E2669B01AC01C301B2010F944D6D0F9474
:10543000BA6F6B017C012B8D3C8D4D8D5E8DCA0149
:10544000B9010F94E2662B013C012F8D38A149A1CF
:105450005AA1CA01B9010F94E2669B01AC01C301D4
:10546000B2010F944D6D9B01AC01C501B4010F94C5
:10547000746F1816ACF520E030E0A901C701B60141
:105480000F94746F87FF29C0C701B601905820E0C0
:1054900030E040EA50E40F94746F18160CF5A10147
:1054A0006D817E81C801FFDEA2960FB6F894DEBF43
:1054B0000FBECDBFDF91CF911F910F91FF90EF9065
:1054C000DF90CF90BF90AF909F908F907F906F9024
:1054D0005F904F903F902F900895C701B601D7CFAE
:1054E00020E030E040E050E4C501B4010F94746F57
:1054F00018161CF4B101C8016CDE19821A821B82D5
:105500001C82BE016F5F7F4FC1015BDE2DEC3CEC66
:105510004CEC5CE3C701B6010F94E2669B01AC0161
:10552000F80160817181828193810F94E2666983C1
:105530007A838B839C83C8010F94D945BE016F5F2A
:105540007F4F8D819E813DDEAFCF3F924F925F9224
:105550006F927F928F929F92AF92BF92CF92DF9283
:10556000EF92FF920F931F93CF93DF93CDB7DEB7E8
:105570006C970FB6F894DEBF0FBECDBFDB010C9168
:10558000142F100F153008F066C11196DC90C22E52
:10559000CD0CB4E0BC1508F45EC1ED2DF0E0E4588C
:1055A000FA4F8080912CB12CA12C002E04C0B6940F
:1055B000A794979487940A94D2F780FE4CC1EC2D5F
:1055C000F0E0E458FA4F8080912CB12CA12C012EF0
:1055D00004C0B694A794979487940A94D2F780FE57
:1055E0003AC1322E642F7C014090CD085090CE08F5
:1055F0006090CF087090D0088091D5089091D6081F
:10560000A091D708B091D808898F9A8FAB8FBC8FA3
:10561000660F770B072E000C880B990B0F9483668F
:105620004B015C01602F000F770B880B990B0F94D7
:105630008366298D3A8D4B8D5C8D0F94E266A301B4
:1056400092010F944D6DA50194010F944D6D6D87DE
:105650007E878F87988B612F110F770B880B990BA3
:105660000F948366298D3A8D4B8D5C8D0F94E26685
:10567000A30192010F944D6DA50194010F944C6DFF
:1056800069837A838B839C834090D1085090D208A1
:105690006090D3087090D4088091D9089091DA086E
:1056A000A091DB08B091DC08898F9A8FAB8FBC8FFB
:1056B000632D660F770B072E000C880B990B0F9448
:1056C00083664B015C016D2DDD0C770B880B990B0C
:1056D0000F948366298D3A8D4B8D5C8D0F94E26615
:1056E000A30192010F944D6DA50194010F944D6D8E
:1056F000698B7A8B8B8B9C8B6C2DCC0C770B880BEE
:10570000990B0F948366298D3A8D4B8D5C8D0F9488
:10571000E266A30192010F944D6DA50194010F94CF
:105720004C6D6D837E838F839887F701808591858B
:10573000A285B38589879A87AB87BC878D8B9E8B23
:10574000AF8BB88F45E351E061E070E0CE01419648
:105750000E9450E745E351E061E070E0CE0105961C
:105760000E9450E745E351E061E070E0CE010D9604
:105770000E9450E745E351E061E070E0CE01019600
:105780000E9450E789889A88AB88BC8827E137EB6C
:1057900041ED58EBC501B4010F94746F87FD5BC0F8
:1057A00023E030E04BE953E4C501B4010F947D667A
:1057B00018160CF450C08D849E84AF84B88827E1FD
:1057C00037EB41ED58EBC501B4010F94746F87FDC1
:1057D00042C023E030E04BE953E4C501B4010F942B
:1057E0007D661816C4F18D809E80AF80B88427E155
:1057F00037EB41ED58EBC501B4010F94746F87FD91
:105800002AC023E030E04BE953E4C501B4010F9412
:105810007D66181604F189809A80AB80BC8027E1F0
:1058200037EB41ED58EBC501B4010F94746F87FD60
:1058300012C023E030E04BE953E4C501B4010F94FA
:105840007D66181644F0AE014F5F5F4FBE01635F87
:105850007F4FC70128DD6C960FB6F894DEBF0FBEF0
:10586000CDBFDF91CF911F910F91FF90EF90DF900F
:10587000CF90BF90AF909F908F907F906F905F90F0
:105880004F903F9008955FD997FD0AC05CD96F3F54
:1058900071058105910509F02CF455D9862F0895DD
:1058A00080E008958FEF089580918D0590918E0589
:1058B000892B39F0E8DF91E0811101C090E0892F58
:1058C000089591E0FCCF3FD9CB0108950F931F932A
:1058D000CF9380918D0590918E050097E9F0FC01A2
:1058E0008F01C1912C2F2F7D81F0C53411F0C53669
:1058F000B9F7F801108270E060E00F941B62F801C4
:10590000C083CF911F910F91089570E060E0CF9117
:105910001F910F910D941B6260E070E0CB01F1CFFD
:105920002FEB280F2A3108F047C0E22FF0E08091DA
:10593000B3059091B405A091B505B091B60504C02A
:10594000B695A795979587952A95D2F780FD02C0C1
:1059500081700895EB56FA4FE081EE2341F180917A
:10596000DB0B9091DC0BE80FF92FF11D808190ED9E
:10597000980F9A3030F08E3251F4818180538A3002
:1059800098F4F0938E05E0938D0581E008958D32B3
:1059900011F08B3249F4818190ED980F9A3088F3A1
:1059A0008E3211F48281EACFF0E0E0E0EACF10928B
:1059B0008E0510928D05E9CF80E00895B1DF882330
:1059C00041F081E020918D0530918E05232B09F463
:1059D00080E00895CF93DF93EB01F0DF882311F08F
:1059E000B2D8EB01CE01DF91CF910895CF93C62FAE
:1059F000E5DF882311F0CF9146CF8C2FCF9108950A
:105A0000CF92DF92EF92FF926A017B01D7DF88236A
:105A100029F0FF90EF90DF90CF9058CFC701B601EB
:105A2000FF90EF90DF90CF9008954F925F926F922A
:105A30007F92AF92BF92CF92DF92EF92FF921F932D
:105A4000CF93DF9300D01F92CDB7DEB719821A82B1
:105A50001B821C82CE0101965C018BEEC82E8BE06E
:105A6000D82E93ECE92E9BE0F92E10E088E5810F0B
:105A7000A5DFF50181935F01882339F027DF2B0132
:105A80003C0180913D12882359F0F601808191817B
:105A9000A281B381F70180839183A283B38315C070
:105AA000812F0E948521882359F0F60120813181C0
:105AB00042815381C301B2010F944D6D2B013C0112
:105AC000F70140825182628273821F5FF4E0CF0E41
:105AD000D11C84E0E80EF11C133041F685E46EDF42
